:020000040000FA
:0600000002EF0FF01200F8
:020006001200E6
:08000800F2A402D02EEF09F072
:100010009EA002D099EF09F09EA202D0F6EF09F05F
:100020009EAA02D0C7EF0CF01200D08EF28E120002
:100030000900BE1F00000C0D000002000000BC1FE4
:1000400000000A0D000002000000B11F00002C0F8C
:1000500000000B000000B01F0000100D00000100A8
:100060000000981F0000000F000018000000541F3F
:1000700000000001000044000000C81E000000094C
:1000800000008C000000B41E0000180F00001400D7
:0E0090000000361E0000000B00007E00000085
:02009E00D9CFB8
:1000A000E6FFE1CFD9FF050EE126FE0EDB50040886
:1000B00002E2000E54D0FE0EDBCF21FFDF6A0F01FB
:1000C0002151DF5C0AE2DF50EA6A1D0FE96E0F0E74
:1000D000EA2236CFEFFFDF2AF2D70F01190E286F81
:1000E0000F0E296F010EDB6A030EF36E010EDBCFDC
:1000F000F4FFF350F45C2FE2DF6A0B0EDF5C26E2C4
:10010000DF50EA6A2C0FE96E0F0EEA22EF508009E9
:10011000E66EC0D9E552C80EF36E030EF3CFDBFFD7
:10012000040EDB6A030EDBCF10F0DB06040EDBCF20
:1001300011F001E2DB061050111006E0080EE66E29
:10014000D3EC0EF0E552EED7DF2AD7D70F01222BE2
:10015000010EDB2AC9D70F01226B010E00D0106EF1
:10016000050EE15C02E2E16AE552E16E1050E552F3
:10017000E7CFD9FF12000F011851010A19E0010A57
:1001800001E059D00F0122510F01EA6A2825E96EDA
:100190002951EA22EF50E66E7DD9E5520F01222B5C
:1001A0000F0121510F01225D02E30F01226B44D0A8
:1001B0000F0127513EE00F0122510F01EA6A282565
:1001C000E96E2951EA22EF50E66E64D9E5520F013B
:1001D000222B0F0121510F01225D02E30F01226B3F
:1001E0000F01232B000E24230F0125510F01235D46
:1001F0000F0126510F0124591BE3FF0E0F01275D4C
:1002000002E00F0127070F01236B246B190E0F016A
:10021000281902E10F0E291906E10F011D0E286FA2
:100220000F0E296F05D00F01190E286F0F0E296FC1
:1002300001D00DD901D000D01200D9CFE6FFE1CF17
:10024000D9FFE652DF6ADF6A0F012151DF5C16E257
:10025000DF50E76EFD0EDBCFE9FFFE0EDBCFEAFFDE
:10026000E750E926000EEA22EF50E66E6FD9E5521C
:10027000000902E1000E43D0DF2AE6D7DF6A0F0152
:100280002151DF5C38E2DF50E76EFD0EDBCFE9FF86
:10029000FE0EDBCFEAFFE750E926000EEA22EF5020
:1002A000200809E1DF50EA6A190FE96E0F0EEA2211
:1002B00036CFEFFF1ED0DF50E76EFD0EDBCFE9FF3C
:1002C000FE0EDBCFEAFFE750E926000EEA22EF50F0
:1002D000D00FEA6A2C0FE96E0F0EEA22EF50E66E9D
:1002E000DF50EA6A190FE96E0F0EEA22E552E75075
:1002F000EF6EDF2AC4D70F01226B010E00D0E5524A
:10030000E552E7CFD9FF1200D9CFE6FFE1CFD9FF01
:10031000E652DF6ADF6A0F012151DF5C19E2DF502C
:10032000E76EFD0EDBCFE9FFFE0EDBCFEAFFE75005
:10033000E926000EEA22EF50E66EDF50EA6A190F56
:10034000E96E0F0EEA22E552E750EF6EDF2AE3D79F
:100350000F01226BE552E552E7CFD9FF1200D9CF4A
:10036000E6FFE1CFD9FFE652DF6AFE0EDBCF10F0E9
:100370000F012151D880105402E2000E2DD0FD0E45
:10038000DBCFE6FFE3D8E552000902E1000E24D0FE
:10039000FD0EDB5020080AE1FE0EDB50EA6A190F61
:1003A000E96E0F0EEA2236CFEFFF14D0FD0EDB50C0
:1003B000D00FEA6A2C0FE96E0F0EEA22EF50E66EBC
:1003C000FE0EDB50EA6A190FE96E0F0EEA22E552C3
:1003D000E750EF6E010E00D0E552E552E7CFD9FFAE
:1003E0001200D9CFE6FFE1CFD9FFE652DF6AFC0E5B
:1003F000DB5002E1DF5026D0FC0EDB50FF0804E1A9
:10040000FC0EDBCF27FF05D0FC0EDB50E8240F01EC
:10041000276FFD0EDBCF25FFFE0EDBCF26FF010E83
:100420000F0B0F0105E0D89026332533E806FBE1DA
:100430000F01236B246B0F01010E186F010EDF6E8D
:10044000DF5000D0E552E552E7CFD9FF12000F018F
:10045000190E286F0F0E296F0F01186B1200D9CFDC
:10046000E6FFE1CFD9FFE652DF6A0F012151DF5CE1
:100470000AE2DF50EA6A190FE96E0F0EEA2236CF60
:10048000EFFFDF2AF2D70F01226BE552E552E7CFEB
:10049000D9FF1200D9CFE6FFE1CFD9FF8092809437
:1004A0008096FE0EDB50836E080EE66E10EC0FF0A9
:1004B000E5520F012251020A09E0030A05E0010A90
:1004C00001E006D0808205D0808403D0808601D0F0
:1004D00000D0080EE66E10EC0FF0E552E552E7CFC3
:1004E000D9FF1200D9CFE6FFE1CFD9FF020EE126F6
:1004F000FE0EDB50DF6EFE0EDBCFE6FFFD0EDB50A7
:10050000E552E724DF5C18E2DF50EA6A190FE96E72
:100510000F0EEA22010EEFCFDBFF010EDB50800948
:10052000E66EDF50EA6A190FE96E0F0EEA22E55215
:10053000E750EF6EDF2ADFD7020EE15C02E2E16AEC
:10054000E552E16EE552E7CFD9FF1200D9CFE6FFC1
:10055000E1CFD9FFE652DF6AFE0EDB50200803E14F
:10056000010EDF6E0ED0300EF36EFE0EDBCFF4FF09
:10057000F350F45C06E3FE0EDB50390802E3010E93
:10058000DF6EDF5000D0E552E552E7CFD9FF120011
:10059000D9CFE6FFE1CFD9FF020EE126DF6A010ED7
:1005A000DB6ADF6AFB0EDB50DF5C16E2DF50E76ED2
:1005B000FD0EDBCFE9FFFE0EDBCFEAFFE750E926B9
:1005C000000EEA22EF50E66EC1DFE552000902E1BB
:1005D000000E4DD0DF2AE6D7FC0EDB50DF6EFB0E9F
:1005E000DBCFE6FFFC0EDB50E552E724DF5C3BE2AD
:1005F000DF50E76EFD0EDBCFE9FFFE0EDBCFEAFF3B
:10060000E750E926000EEA22EF50200809E1DF500A
:10061000EA6A190FE96E0F0EEA2236CFEFFF1FD0FC
:10062000010EDB50E76EFD0EDBCFE9FFFE0EDBCFE8
:10063000EAFFE750E926000EEA22EF50D00FEA6AFF
:100640002C0FE96E0F0EEA22EF50E66EDF50EA6AD9
:10065000190FE96E0F0EEA22E552E750EF6EDF2A1E
:10066000010EDB2ABCD70F01226B010E00D0106EE9
:10067000020EE15C02E2E16AE552E16E1050E552E1
:10068000E7CFD9FF1200D9CFE6FFE1CFD9FFE6527D
:10069000FD0EDBCF25FFFE0EDBCF26FF010E0F0B7D
:1006A0000F0105E0D89026332533E806FBE10F0162
:1006B000236B246BFC0EDB500F012A6F2B6BDF6A60
:1006C0000F012151DF5C1DE2DF50106E116A0F0136
:1006D0002A51101802E12B51111811E0DF50EA6A7B
:1006E000190FE96E0F0EEA22EF50E66EDF50EA6A4C
:1006F0001D0FE96E0F0EEA22E552E750EF6EDF2A7A
:10070000DFD71D0E0F012A25E96E0F0E0F012B21D9
:10071000EA6EEF6A0F01010E186FE552E552E7CF5E
:10072000D9FF1200D9CFE6FFE1CFD9FFE6520F0182
:1007300027417F0BDF6EDF5000D0E552E552E7CF57
:04074000D9FF1200CB
:0C074400DACFE4FFE2CFDAFFE9CFE4FFF8
:10075000EACFE4FFF6CFE4FFF7CFE4FFF5CFE4FF05
:10076000F3CFE4FFF4CFE4FFFACFE4FF00EE00F0B4
:10077000100EE80403E3EECFE4FFFBD700EE10F029
:10078000090EE80403E3EECFE4FFFBD7E652D9CF2E
:10079000E6FFE1CFD9FFE65241EC0EF0DF6E0B0130
:1007A000BD51BD2BEA6AC00FE96E0B0EEA22DFCF06
:1007B000EFFF3C0E0B01BD5D02E30B01BD6B0B01B6
:1007C000BF2BA49AE552E552E7CFD9FFE55200EEE0
:1007D00018F0090EE80403E3E5CFEDFFFBD700EEC8
:1007E0000FF0100EE80403E3E5CFEDFFFBD7E5CFF4
:1007F000FAFFE5CFF4FFE5CFF3FFE5CFF5FFE5CF57
:10080000F7FFE5CFF6FFE5CFEAFFE5CFE9FFE5CF5C
:10081000DAFF1100DACFE4FFE2CFDAFFE9CFE4FF3D
:10082000EACFE4FFE652D9CFE6FFE1CFD9FFE652A7
:100830000B01025104E1ACA2FED7AC9A21D00B010E
:100840000151EA6A030FE96E0B0EEA22EFCFDFFFD8
:10085000DF50AD6E0B01012B3C0E0B01015D02E37D
:100860000B01016B000E0B01E76E0219E8AE02D01E
:10087000023503D0E750D880025502E20B0102078F
:10088000E552E552E7CFD9FFE552E5CFEAFFE5CFE4
:10089000E9FFE5CFDAFF1100DACFE4FFE2CFDAFFBC
:1008A000E9CFE4FFEACFE4FFE652D9CFE6FFE1CF9C
:1008B000D9FFE6520B01805104E172A2FED7729A71
:1008C00021D00B017F51EA6A810FE96E0B0EEA22FB
:1008D000EFCFDFFFDF50736E0B017F2B3C0E0B0160
:1008E0007F5D02E30B017F6B000E0B01E76E801949
:1008F000E8AE02D0803503D0E750D880805502E2C0
:100900000B018007E552E552E7CFD9FFE552E5CF6D
:10091000EAFFE5CFE9FFE5CFDAFF1100D9CFE6FF27
:10092000E1CFD9FFE6527C0EDF6ED950FB0FE96EA6
:10093000FF0EDA20EA6EEE2A000EEE22000EEE2204
:10094000000EEE22D950FB0FE96EFF0EDA20EA6EA0
:10095000040EE76ED890EF36010EEB36020EEB3642
:10096000030EEB36E706F6E1106A480E116EE80E4C
:10097000126E010E136E10C004F011C005F012C00B
:1009800006F013C007F0FB0EDBCF09F0FC0EDBCF47
:100990000AF0FD0EDBCF0BF0FE0EDBCF0CF01DECF2
:1009A0000EF0FB0E04C0DBFFFC0E05C0DBFFFD0EEE
:1009B00006C0DBFFFE0E07C0DBFFFB0EDBCFE6FF52
:1009C000FC0EDBCFE6FFDFCFE6FFBAEC0DF0E55221
:1009D000E552E552AC8AAC9E9D8A9F88E552E5526D
:1009E000E7CFD9FF1200D9CFE6FFE1CFD9FFE6521A
:1009F0007C0EDF6E670EE66EE66ADFCFE6FF7EEC0A
:100A00000DF0E552E552E552D08E718E728A729EDB
:100A1000A38AA58AE552E552E7CFD9FF1200D9CFC4
:100A2000E6FFE1CFD9FFACA2FED70B010051002BAE
:100A3000EA6A030FE96E0B0EEA22FE0EDBCFEFFF30
:100A40000B01022B3C0E0B01005D02E30B01006B5E
:100A5000010E00D0E552E7CFD9FF1200D9CFE6FF53
:100A6000E1CFD9FF72A2FED70B017E517E2BEA6A3D
:100A7000810FE96E0B0EEA22FE0EDBCFEFFF0B01BA
:100A8000802B3C0E0B017E5D02E30B017E6B010EA1
:100A900000D0E552E7CFD9FF1200D9CFE6FFE1CF72
:100AA000D9FF060EE126010EF36E020EF3CFDBFF37
:100AB000030EDB6A020EDBCF10F0DB06030EDBCF8A
:100AC00011F001E2DB061050111006E0080EE66E90
:100AD000D3EC0EF0E552EED7000E0B01E76E0219D3
:100AE000E8AE02D0023503D0E750D880025528E2A4
:100AF0000B010151EA6A030FE96E0B0EEA22010EA7
:100B0000EFCFDBFFACA2FED7010EDB50AD6EACA287
:100B1000FED70B01012B3C0E0B01015D02E30B0123
:100B2000016B000E0B01E76E0219E8AE02D0023530
:100B300003D0E750D880025502E20B010207CCD760
:100B4000010EF36E040EF3CFDBFF050EDB6A040E1D
:100B5000DBCF10F0DB06050EDBCF11F001E2DB0688
:100B60001050111006E0080EE66ED3EC0EF0E552C0
:100B7000EED7106E060EE15C02E2E16AE552E16E2C
:100B80001050E552E7CFD9FF1200D9CFE6FFE1CFF1
:100B9000D9FF060EE126010EF36E020EF3CFDBFF46
:100BA000030EDB6A020EDBCF10F0DB06030EDBCF99
:100BB00011F001E2DB061050111006E0080EE66E9F
:100BC000D3EC0EF0E552EED7000E0B01E76E801964
:100BD000E8AE02D0803503D0E750D880805528E2B7
:100BE0000B017F51EA6A810FE96E0B0EEA22010EBA
:100BF000EFCFDBFF72A2FED7010EDB50736E72A245
:100C0000FED70B017F2B3C0E0B017F5D02E30B0136
:100C10007F6B000E0B01E76E8019E8AE02D08035C5
:100C200003D0E750D880805502E20B018007CCD773
:100C3000010EF36E040EF3CFDBFF050EDB6A040E2C
:100C4000DBCF10F0DB06050EDBCF11F001E2DB0697
:100C50001050111006E0080EE66ED3EC0EF0E552CF
:100C6000EED7106E060EE15C02E2E16AE552E16E3B
:100C70001050E552E7CFD9FF1200D9CFE6FFE1CF00
:100C8000D9FFE652DF6AA39A000E0B01E76EBF1987
:100C9000E8AE02D0BF3503D0E750D880BF5502E29E
:100CA000010EDF6EA38ADF5000D0E552E552E7CF98
:100CB000D9FF1200D9CFE6FFE1CFD9FFE652DF6AB4
:100CC0009D9A000E0B01E76E4119E8AE02D0413546
:100CD00003D0E750D880415502E2010EDF6E9D8AB5
:100CE000DF5000D0E552E552E7CFD9FF1200D9CF4F
:100CF000E6FFE1CFD9FFE6529D9A0B014051402B10
:100D0000EA6A420FE96E0B0EEA22EFCFDFFF3C0EDC
:100D10000B01405D02E30B01406B000E0B01E76E1F
:100D20004119E8AE02D0413503D0E750D880415593
:100D300002E20B0141079D8ADF5000D0E552E552E7
:100D4000E7CFD9FF1200D9CFE6FFE1CFD9FFE652B6
:100D5000A39A0B01BE51BE2BEA6AC00FE96E0B0EBF
:100D6000EA22EFCFDFFF3C0E0B01BE5D02E30B0179
:100D7000BE6B000E0B01E76EBF19E8AE02D0BF35A7
:100D800003D0E750D880BF5502E20B01BF079D8A10
:0E0D9000DF5000D0E552E552E7CFD9FF120048
:020D9E00D9CFAB
:100DA000E6FFE1CFD9FFFE0EDBCF01F9FD0EDBCF71
:100DB00002F9FC0EDBCF03F9FB0EDBCF04F9F90ED1
:100DC000DBCF81F9FA0EDBCF82F904D8E552E7CF09
:100DD000D9FF1200240EE66EF40EE66EE66AE66AAD
:100DE0008EEC04F0E552E552E552E55209017D6BC7
:100DF00009017E6B0901010E006F09017F6B09017A
:100E0000050E806F87C983F988C984F989C985F976
:100E10008AC986F900C98BF9120009017D6B0901A5
:100E20007E6B0901010E006F09017F6B0901050E40
:100E3000806F87C983F988C984F989C985F98AC906
:100E400086F900C98BF91200D9CFE6FFE1CFD9FFAF
:100E5000060EE126DF6A70EC0AF004C087F905C0CF
:100E600088F906C089F907C08AF9ABA207D0AB9808
:100E7000080EE66E10EC0FF0E552AB88830EE96EBB
:100E8000090EEA6EEE50090187190CE1EE500901D6
:100E9000881908E1EE500901891904E1EE500901B1
:100EA0008A1900E118E00901005109018B5D0BE18D
:100EB000020E0901005D07E1090180070901805167
:100EC00002E188DFD2D087C983F988C984F989C94A
:100ED00085F98AC986F909010051030A01E1BED0EA
:100EE000010A18E0030A01E0BCD05AEC06F0000940
:100EF00001E1BBD077EC06F0DF6E09010151DF5C48
:100F000008E109017D6B0901020E006F0901050E60
:100F1000806FA9D05AEC06F0000901E1A6D077EC69
:100F200006F0DF6E09010251DF5C01E07BD0020EAA
:100F3000DB6A030EDB68D950030FE66E000EDA2081
:100F4000E66E9DD8E552E552E76E020EE7CFDBFF75
:100F5000020EDB50020A57E0030A05E0010A01E035
:100F60005CD05BDF82D00901815182114AE0D95007
:100F7000040FE66E000EDA20E66E7F0EE66E090EB6
:100F8000E66E070EE66E090EE66E05D082C9FAFF20
:100F900009018151F96EFADF106E060EE15E105004
:100FA00009017E6F0901416909017E2B7FC942F960
:100FB00009017E2BDE52020EDD6E09017E51F36EB9
:100FC000010EDBCFF4FFF350F45C1AE2040EDBCF2A
:100FD000E9FF050EDBCFEAFFEF50E66E010EDB50B6
:100FE000EA6A410FE96E090EEA22E552E750EF6E18
:100FF000040EDB2A050E01E3DB2A010EDB2ADDD716
:1010000001D00BDF0BD00901FA0E416F09017E2BD5
:101010007FC942F909017E2B01D000D00901030EDE
:10102000006F1BD009017D517D2BEA6A050FE96E27
:10103000090EEA22DFCFEFFF3C0E09017D5D0DE3D3
:101040000901FA0E416F09017E2B0901900E426FD2
:1010500009017E2B0901030E006F05D061D8DDDE8A
:1010600002D0DBDE00D000C98BF9060EE15C02E2A3
:10107000E16AE552E16EE552E7CFD9FF1200D9CF20
:10108000E6FFE1CFD9FF020EE12609017D05EA6AFC
:10109000050FE96E090EEA22EFCFDFFF010EDB6AD2
:1010A000FA0E0901055D06E0FF0E0901055D02E08B
:1010B000000E2AD009017D05E66E050EE66E090ECA
:1010C000E66E9AD8E552E552E552E76E010EE7CF9B
:1010D000DBFF010EDB50DF5C0DE109017D0709013B
:1010E0007D51EA6A050FE96E090EEA22EF6A010EE8
:1010F0000BD00AD0FD0EDBCFE9FFFE0EDBCFEAFFFF
:10110000910EEF6E000E00D0106E020EE15C02E256
:10111000E16AE552E16E1050E552E7CFD9FF1200C7
:10112000D9CFE6FFE1CFD9FF020EE126DF6A010E3B
:10113000DB6A7EC9E6FF410EE66E090EE66E5CD8FC
:10114000E552E552E552DF6E03C9E6FF0FEC05F00C
:10115000E552010EDB6A09017E51F36E010EDBCF11
:10116000F4FFF350F45C0FE2010EDB50EA6A410F2A
:10117000E96E090EEA22EF50E66E0FEC05F0E5523B
:10118000010EDB2AE8D7DFCFE6FF0FEC05F0E552D2
:1011900004C9E6FF0FEC05F0E552020EE15C02E245
:1011A000E16AE552E16EE552E7CFD9FF1200D9CFEF
:1011B000E6FFE1CFD9FFFD0EDBCFF6FFFE0EDBCF62
:1011C000F7FF0800F55012E0FD0EDBCFF6FFFE0E34
:1011D000DBCFF7FF0800F550E66E0FEC05F0E552A7
:1011E000FD0EDB2AFE0E01E3DB2AE5D74DEC05F010
:1011F000E552E7CFD9FF1200D9CFE6FFE1CFD9FF03
:10120000030EE126DF6A010EDB6AFC0EDB50F36E93
:10121000010EDBCFF4FFF350F45C12E2010EDB5061
:10122000E76EFD0EDBCFE9FFFE0EDBCFEAFFE750F6
:10123000E926000EEA22EF50DF1A010EDB2AE5D77D
:10124000DF5000D0106E030EE15C02E2E16AE5526D
:0C125000E16E1050E552E7CFD9FF12000C
:04125C00DACFE4FF02
:10126000E2CFDAFFE9CFE4FFEACFE4FFF6CFE4FF15
:10127000F7CFE4FFF5CFE4FFF3CFE4FFF4CFE4FFD3
:10128000FACFE4FF00EE00F0100EE80403E3EECF27
:10129000E4FFFBD700EE10F0090EE80403E3EECF05
:1012A000E4FFFBD7E652F2940F010C2B000E0D2346
:1012B0000E230F230F01102B000E11230F01122BF1
:1012C000000E13230F010251031107E005D003CFD5
:1012D000FAFF0F010251F96EFADF00CFE6FF01CFEE
:1012E000E6FF9BEC0EF0E552E552E55200EE18F0F9
:1012F000090EE80403E3E5CFEDFFFBD700EE0FF0A6
:10130000100EE80403E3E5CFEDFFFBD7E5CFFAFFCE
:10131000E5CFF4FFE5CFF3FFE5CFF5FFE5CFF7FF2E
:10132000E5CFF6FFE5CFEAFFE5CFE9FFE5CFDAFF4E
:101330001100DACFE4FFE2CFDAFFE9CFE4FFEACF32
:10134000E4FFF6CFE4FFF7CFE4FFF5CFE4FFF3CF00
:10135000E4FFF4CFE4FFFACFE4FF00EE00F0100E5C
:10136000E80403E3EECFE4FFFBD700EE10F0090E34
:10137000E80403E3EECFE4FFFBD7E6529E9004CFF0
:10138000E6FF05CFE6FF7FEC0EF0E552E5520F01D8
:101390000651071107E005D007CFFAFF0F010651EC
:1013A000F96EFADFE55200EE18F0090EE80403E3E7
:1013B000E5CFEDFFFBD700EE0FF0100EE80403E3DE
:1013C000E5CFEDFFFBD7E5CFFAFFE5CFF4FFE5CFA3
:1013D000F3FFE5CFF5FFE5CFF7FFE5CFF6FFE5CF6C
:1013E000EAFFE5CFE9FFE5CFDAFF1100DACFE4FF4E
:1013F000E2CFDAFFE9CFE4FFEACFE4FFF6CFE4FF84
:10140000F7CFE4FFF5CFE4FFF3CFE4FFF4CFE4FF41
:10141000FACFE4FF00EE00F0100EE80403E3EECF95
:10142000E4FFFBD700EE10F0090EE80403E3EECF73
:10143000E4FFFBD7E6529E9208CFBBFF0F010A5193
:101440000B1107E005D00BCFFAFF0F010A51F96E1F
:10145000FADFE55200EE18F0090EE80403E3E5CFE9
:10146000EDFFFBD700EE0FF0100EE80403E3E5CF2D
:10147000EDFFFBD7E5CFFAFFE5CFF4FFE5CFF3FFB4
:10148000E5CFF5FFE5CFF7FFE5CFF6FFE5CFEAFFC4
:10149000E5CFE9FFE5CFDAFF1100D9CFE6FFE1CFD5
:1014A000D9FF9F0EE66EB7EC0EF0E552FD0EDBCFD6
:1014B00000FFFE0EDBCF01FFFB0EDBCF02FFFC0EB9
:1014C000DBCF03FFFD0EDBCFE6FFFE0EDBCFE6FF3B
:1014D0009BEC0EF0E552E552E552E7CFD9FF120042
:1014E000D9CFE6FFE1CFD9FF040EE126F29A14CF5F
:1014F000DFFF010E15CFDBFF020E16CFDBFF030E61
:1015000017CFDBFFF28ADECF04F0DECF05F0DECFAF
:1015100006F0DDCF07F0DD52DD5200D0040EE15CB5
:1015200002E2E16AE552E16EE552E7CFD9FF12002F
:10153000D9CFE6FFE1CFD9FF020EE126830EDF6EA1
:10154000DE52080EDD6E010EDBCFE6FFDFCFE6FFD9
:10155000F3EC0DF0E552E552FD0EDBCFE6FFFE0E9B
:10156000DBCFE6FF7FEC0EF0E552E5529F809D80D9
:10157000010ECD6EFD0EDBCF04FFFE0EDBCF05FFAF
:10158000FB0EDBCF06FFFC0EDBCF07FF020EE15C9C
:1015900002E2E16AE552E16EE552E7CFD9FF1200BF
:1015A000D9CFE6FFE1CFD9FF0F0EBA6E9F829D82A1
:1015B000FE0EDB50BB6EFE0EDB500F01086F096B99
:1015C000FC0EDBCF0AFFFD0EDBCF0BFFE552E7CFB2
:0415D000D9FF12002D
:0C15D400D9CFE6FFE1CFD9FFE652DF6A75
:1015E000030EDF5C0AE2DF50EA6A000FE96E010ECB
:1015F000EA22300EEF6EDF2AF3D7000EE66E010E00
:10160000E66E1DEC01F0E552E552E552E552E7CFFA
:10161000D9FF1200D9CFE6FFE1CFD9FFE652010191
:10162000042B500E0101045D01E38492010103517A
:1016300000083EE292EC03F000093AE13C0E0101A1
:10164000435D02E10101436BDF6A030EDF5C16E2DA
:1016500001014351EA6A060FE96E010EEA22EF50DA
:10166000E66EDF50EA6A000FE96E010EEA22E552EB
:10167000E750EF6EDF2A0101432BE7D7000EE66E3D
:10168000010EE66E1DEC01F0E552E5528482030E78
:10169000E66EE80EE66E030EE66EF1EC01F0E55242
:1016A000E552E5520101046B0101056B01010307DD
:1016B000E552E552E7CFD9FF1200D9CFE6FFE1CFDF
:1016C000D9FF020EE126010EDB6ADF6A030EDF5C42
:1016D0001EE2020ED880DF54E76EFD0EDBCFE9FF7D
:1016E000FE0EDBCFEAFFE750E926000EEA22EF50BC
:1016F000E66E01014251EA6A060FE96E010EEA2226
:10170000E552E750EF6E0101422BDF2ADFD73C0E96
:101710000101425D02E10101426B0101032BFB0E5D
:10172000DBCFE9FFFC0EDBCFEAFF810EEF6E010E8F
:10173000DB5000D0106E020EE15C02E2E16AE5527D
:0C174000E16E1050E552E7CFD9FF120017
:04174C00D9CFE6FF0C
:10175000E1CFD9FF080EE126DE6A480EDE6EE80E04
:10176000DE6E010EDD6EDD52DD52DECF05F0DECF26
:1017700006F0DECF07F0DDCF08F0DD52DD52055078
:1017800007E1240E061804E1F40E071801E10850E1
:101790001FE0055008E1480E061805E1E80E07189D
:1017A00002E1010E081810E0055008E1900E06183D
:1017B00005E1D00E071802E1030E081801E000D081
:1017C000700ED36E9B8C08D0600ED36E9B8C04D0B1
:1017D000700ED36E9B9C00D0D9CFE9FFDACFEAFF21
:1017E000EECF10F0EECF11F0EECF12F0EFCF13F0FE
:1017F000020ED8901332123211321032E806F9E19B
:10180000040E10C0DBFF050E11C0DBFF060E12C078
:10181000DBFF070E13C0DBFFD950040FE96EDACFF0
:10182000EAFFE80E096E030E0A6E0B6A0C6AEECF31
:1018300004F0EECF05F0EECF06F0EFCF07F01DEC91
:101840000EF007C0EDFF06C0EDFF05C0EDFF04C0C0
:10185000EFFF13681468156A040EDBCF16F0050E4F
:10186000DBCF17F0186A1650135C106E175014581F
:10187000116E18501558126E10C00CFD11C00DFDE0
:10188000C26A0F01386B0F01396B0F013A6B0F0100
:101890003B6B0F013C6B96909692956A9292929454
:1018A0009296949C948EF19E080EE15C02E2E16AAD
:0C18B000E552E16EE552E7CFD9FF1200CF
:0418BC00D9CFE6FF9B
:1018C000E1CFD9FF040EE126A6EC0BF0030EE66E85
:1018D0004FEC00F0E552760EE66E010EE66EBF0E9E
:1018E000E66EE00EE66E4DEC0AF0E552E552E5528A
:1018F000E552BA0EE66E160EE66EDD0EE66ECC0E04
:10190000E66EBB0EE66EAA0EE66ECFEC06F0106E2B
:10191000060EE15E1050EAEC0AF015EC00F0F40E51
:10192000DE6E010EDE6EDE6ADD6ADD52DD52D9CF7B
:10193000E9FFDACFEAFFEE500F010C5DEE500F0128
:101940000D59EE500F010E59EE500F010F5907E3DC
:10195000F6EC0EF00F010C6B0D6B0E6B0F6B0F01A5
:10196000320E105D000E115905E30AEC0BF00F0169
:10197000106B116B24EC07F0DAD7040EE15C02E285
:0E198000E16AE552E16EE552E7CFD9FF1200B1
:02198E00DACFAE
:10199000E4FFE2CFDAFFE9CFE4FFEACFE4FFF6CFDE
:1019A000E4FFF7CFE4FFF5CFE4FFF3CFE4FFF4CF9C
:1019B000E4FFFACFE4FF00EE00F0100EE80403E3CA
:1019C000EECFE4FFFBD700EE10F0090EE80403E3CE
:1019D000EECFE4FFFBD7E652D9CFE6FFE1CFD9FF48
:1019E000E65260EC0EF0DF6E0B013F513F2BEA6ACE
:1019F000420FE96E0B0EEA22DFCFEFFF3C0E0B0128
:101A00003F5D02E30B013F6B0B01412B9E9AE552B8
:101A1000E552E7CFD9FFE55200EE18F0090EE804D1
:101A200003E3E5CFEDFFFBD700EE0FF0100EE80467
:101A300003E3E5CFEDFFFBD7E5CFFAFFE5CFF4FFFA
:101A4000E5CFF3FFE5CFF5FFE5CFF7FFE5CFF6FFF5
:0E1A5000E5CFEAFFE5CFE9FFE5CFDAFF1100B1
:021A5E00300E48
:101A6000F66E000EF76E000EF86E0D010900F550CF
:101A7000056F0900F550066F03E1056701D03DD001
:101A80000900F550006F0900F550016F0900F5508D
:101A9000026F09000900F550E96E0900F550EA6E81
:101AA000090009000900F550036F0900F550046FA3
:101AB00009000900F6CF07FDF7CF08FDF8CF09FDB3
:101AC00000CDF6FF01CDF7FF02CDF8FF0D01035366
:101AD00002E1045307E00900F550EE6E0307F8E257
:101AE0000407F9D707CDF6FF08CDF7FF09CDF8FFBA
:0C1AF0000D010507000E065BBFD71200B9
:041AFC00D9CFE6FF59
:101B0000DACFE6FFE1CFD9FFE2CFDAFF726A716A7E
:101B1000FD0EDBB07288DBA202D0728C718CDBB45C
:101B2000728EDBA602D0718801D0718ADBA802D048
:101B3000728401D07294DBBA7186DBAC02D0A38AC6
:101B400001D0A39ADBAE02D0A38801D0A398FB0EEC
:101B5000DB50756EFC0EDBCF11F011C010F0116A76
:101B60001050766E728A718EE552E5CFDAFFE7CFBC
:041B7000D9FF120087
:0C1B7400D9CFE6FFDACFE6FFE1CFD9FFC2
:101B8000E2CFDAFFAC6AAB6AFD0EDBB0AC88DBA259
:101B900002D0AC8CAB8CDBB4AC8EDBA602D0AB88B5
:101BA00001D0AB8ADBB8AC84DBBAAB86DBAC02D04D
:101BB0009D8A01D09D9ADBAE02D09D8801D09D9870
:101BC000FB0EDB50AF6EFC0EDBCF11F011C010F03E
:101BD000116A1050B06EAC8AAB8EE552E5CFDAFFD9
:061BE000E7CFD9FF12005F
:0A1BE600D9CFE6FFDACFE6FFE1CF2A
:101BF000D9FFE2CFDAFFFC0EDB50F30BCC6EFD0E0B
:101C0000DB507F0BE824CD6ECF6ACE6A9E90FD0E2E
:101C1000DBAE02D09D8001D09D90A490FC0EDBA491
:101C200002D0A38001D0A390CCBECC86CD80E5525B
:0A1C3000E5CFDAFFE7CFD9FF12007D
:061C3A00036A026A016A60
:101C4000006A200EE76ED890043605360636073651
:101C500000360136023603360950005C0A5001583E
:101C60000B5002580C50035809E30950005E0A500B
:101C7000015A0B50025A0C50035A042AE72EE4D79B
:021C8000120050
:0E1C8200D9CFE6FFDACFE6FFE1CFD9FFE2CF00
:101C9000DAFFE652F20E0F01371771AC03D037911D
:101CA00071B0378171B4378571B237877450DF6E88
:101CB000DF50E552E552E5CFDAFFE7CFD9FF12005A
:101CC000D9CFE6FFDACFE6FFE1CFD9FFE2CFDAFFE7
:101CD000E652F20E0D010E17ABAC03D00E91ABB075
:101CE0000E81ABB40E85ABB20E87AE50DF6EDF5007
:0E1CF000E552E552E5CFDAFFE7CFD9FF12004B
:021CFE00D9CF3C
:101D0000E6FFDACFE6FFE1CFD9FFE2CFDAFFE65216
:101D1000E652FC0EDBCFDEFFDBCFDDFF010EDB503A
:101D2000CF6EDF50CE6EE552E552E552E5CFDAFFD9
:061D3000E7CFD9FF12000D
:0A1D3600D9CFE6FFDACFE6FFE1CFD8
:101D4000D9FFE2CFDAFFE652E652FC0EDBCFDEFF30
:101D5000DBCFDDFF010EDB50D76EDF50D66EE552D4
:0E1D6000E552E552E5CFDAFFE7CFD9FF1200DA
:021D6E00D9CFCB
:101D7000E6FFDACFE6FFE1CFD9FFE2CFDAFFFD0ED3
:101D8000DB507F0BD56ED76AD66AF294FD0EDBAEC0
:101D900002D0F28A01D0F29AD58EE552E5CFDAFF71
:061DA000E7CFD9FF12009D
:0A1DA600FF0EE350196E480E01D045
:101DB0004C0EE76EE72EFED7E76AE72EFED7192E08
:061DC000F7D7000012003D
:0A1DC600380EF36E00EE00F00F0E71
:101DD00001D81200EA6002D0EE6AFCD7F350E96045
:061DE0001200EE6AFCD7C0
:0A1DE6000D01106B12000D01100535
:101DF00004E10D01106B849004D00D01010E106FF1
:041E000084801200C8
:0C1E040010EE60F020EE60F0F86A0F9C19
:101E10002FEC0DF003EC00F05EEC0CF0FBD71200A1
:101E2000FF0EE350E84E1200000000D000D000D0BA
:061E3000E82EFAD71200B3
:0A1E360000000000000000000000A2
:101E40000000000000000000000000000000000092
:101E50000000000000000000000000000000000082
:101E60000000000000000000000000000000000072
:101E70000000000000000000000000000000000062
:101E80000000000000000000000000000000000052
:101E90000000000000000000000000000000000042
:101EA0000000000000000000000000000000000032
:041EB000000000002E
:0C1EB40000000000000000000000000022
:081EC00000000000000000001A
:081EC800000000000000000012
:101ED0000000000000000000000000000000000002
:101EE00000000000000000000000000000000000F2
:101EF00000000000000000000000000000000000E2
:101F000000000000000000000000000000000000D1
:101F100000000000000000000000000000000000C1
:101F200000000000000000000000000000000000B1
:101F300000000000000000000000000000000000A1
:101F40000000000000000000000000000000000091
:041F5000000000008D
:0C1F540000000000000000000000000081
:101F60000000000000000000000000000000000071
:101F70000000000000000000000000000000000061
:101F80000000000000000000000000000000000051
:081F9000000000000000000049
:081F9800000000000000000041
:101FA0000000000000000000000000000000000031
:011FB0000030
:0B1FB1003F065B4F666D7D077F6F00F1
:021FBC00FFFF25
:021FBE00000021
:020000040030CA
:0100010008F6
:0100020001FC
:0100030024D8
:01000500BD3D
:010006008079
:010008000FE8
:01000900C036
:01000A000FE6
:01000B00E014
:01000C000FE4
:01000D0040B2
:00000001FF
