:020000040000FA
:0600000061EF10F0120098
:020006001200E6
:080008009EAA02D0BAEF0DF030
:020010001200DC
:0100120000ED
:02001300FFFFED
:08001800F2A402D041EF0DF04B
:0C0020001200D08E9F8AF28EF28C12002B
:04002C0008001300B5
:1000300000000A0F000002000000120000000F0F75
:100040000000010000000523000000090000140169
:100050000000BC2200005D0D0000490000009A2253
:1000600000001E0E0000220000007C220000000E96
:1000700000001E00000076210000000B00000601B9
:0E008000000019210000000D00005D000000CE
:02008E00D9CFC8
:10009000E6FFE1CFD9FFFE0EDBCF01F9FD0EDBCF8E
:1000A00002F9FC0EDBCF03F9FB0EDBCF04F9F90EEE
:1000B000DBCF09FAFA0EDBCF0AFA04D8E552E7CF14
:1000C000D9FF120066EC04F00A01056B066B010E05
:1000D000006F076B050E086F0FCA0BFA10CA0CFAF7
:1000E00011CA0DFA12CA0EFA00C913FA12000A0157
:1000F000056B066B010E006F076B050E086F0FCACC
:100100000BFA10CA0CFA11CA0DFA12CA0EFA00C97B
:1001100013FA1200D9CFE6FFE1CFD9FF060EE12690
:10012000DF6A9FEC0EF004C00FFA05C010FA06C09B
:1001300011FA07C012FA0B0EE96E0A0EEA6EEE50C3
:100140000A010F1909E1EE50101906E1EE501119DC
:1001500003E1EE50121900E113E00051135D08E1D4
:10016000020E005D05E10807085102E1ABDFBED0D9
:100170000FCA0BFA10CA0CFA11CA0DFA12CA0EFAFB
:100180000051030A01E1ADD0010A16E0030A02E0C2
:10019000AEDFAAD0D5EC05F0000901E1A7D0F2EC62
:1001A00005F0DF6E09010151DF5C05E1056B020E10
:1001B000006F050E086F98D0D5EC05F0000901E13D
:1001C00095D0F2EC05F0DF6E09010251DF5C74E1BD
:1001D000020EDB6A030EDB68D950030FE66E000ED9
:1001E000DA20E66E8DD8E552E552E76E020EE7CFD3
:1001F000DBFFDB50020A54E0030A05E0010A01E0DC
:1002000057D075DF73D00A0109510A1147E0D95060
:10021000040FE66E000EDA20E66E070EE66E0A0E9A
:10022000E66E070EE66E090EE66E05D00ACAFAFF04
:100230000A010951F96EFADF0B6E060EE15E0B50F2
:100240000A01066FFA0E856F062B07CA86F9062B80
:10025000DE52020EDD6E0651F36E010EDBCFF4FFAF
:10026000F350F45C1AE2040EDBCFE9FF050EDBCF9E
:10027000EAFFEF50E66E010EDB50EA6A850FE96E89
:10028000090EEA22E552E750EF6E040EDB2A050E56
:1002900001E3DB2A010EDB2ADED701D028DF08D0FC
:1002A0000901FA0E856F062B07CA86F9062B00D0C6
:1002B0000901030E006F14D00551052BEA6A050FE2
:1002C000E96E090EEA22DFCFEFFF800E055D08E33D
:1002D000FA0E856F062B900E866F062B030E006FAD
:1002E00003D05AD804DF00D000C913FA060EE15C2F
:1002F00002E2E16AE552E16EE552E7CFD9FF120072
:10030000D9CFE6FFE1CFD9FF020EE1260A010505AC
:10031000EA6A050FE96E090EEA22EFCFDFFF010E50
:10032000DB6AFA0E055D05E0FA0E055D02E0000EDF
:1003300027D00505E66E050EE66E090EE66E9AD824
:10034000E552E552E552E76E010EE7CFDBFFDB50E9
:10035000DF5C0CE10A0105070551EA6A050FE96E49
:10036000090EEA22EF6A010E0BD00AD0FD0EDBCF98
:10037000E9FFFE0EDBCFEAFF910EEF6E000E00D01C
:100380000B6E020EE15C02E2E16AE552E16E0B5097
:10039000E552E7CFD9FF1200D9CFE6FFE1CFD9FF71
:1003A000020EE126DF6A010EDB6A06CAE6FF850E51
:1003B000E66E090EE66E5ED8E552E552E552DF6E56
:1003C00003C9E6FF9AEC04F0E552010EDB6A0A016C
:1003D0000651F36E010EDBCFF4FFF350F45C0FE235
:1003E000010EDB50EA6A850FE96E090EEA22EF5032
:1003F000E66E9AEC04F0E552010EDB2AE8D7DFCF77
:10040000E6FF9AEC04F0E55204C9E6FF9AEC04F02A
:10041000E552D2EC04F0020EE15C02E2E16AE55240
:10042000E16EE552E7CFD9FF1200D9CFE6FFE1CF69
:10043000D9FFFD0EDBCFF6FFFE0EDBCFF7FF080086
:10044000F55012E0FD0EDBCFF6FFFE0EDBCFF7FF1F
:100450000800F550E66E9AEC04F0E552FD0EDB2A3A
:10046000FE0E01E3DB2AE5D7D2EC04F0E552E7CF3C
:10047000D9FF1200D9CFE6FFE1CFD9FF030EE12665
:10048000DF6A010EDB6AFC0EDB50F36E010EDBCF80
:10049000F4FFF350F45C12E2010EDB50E76EFD0E48
:1004A000DBCFE9FFFE0EDBCFEAFFE750E926000EC7
:1004B000EA22EF50DF1A010EDB2AE5D7DF500B6E80
:1004C000030EE15C03E200D0E16AE552E16E0B50FD
:1004D000E552E7CFD9FF1200D9CFE6FFE1CFD9FF30
:1004E000300EE126DF6AD950010FE96EDACFEAFF5C
:1004F000EE6AEE6AEE6AEE6AEE6AEE6AEE6AEE6A3C
:10050000EE6AEE6AEE6AEE6AEE6AEE6AEE6AEE6A2B
:10051000EE6AEE6AEE6AEE6AEE6AEE6AEE6AEE6A1B
:10052000EE6AEE6AEE6AEE6AEE6AEE6AEE6AEE6A0B
:10053000EE6AEE6AEE6AEE6AEE6AEE6AEE6AEE6AFB
:10054000EE6AEE6AEE6AEE6A2D0EDB6AD9CF0BF028
:10055000DACF0CF0DBCFF3FFDB2AF3500F010B24D3
:10056000E96E000E0C20EA6EAA0EEF6ED9CF0BF0EA
:10057000DACF0CF02D0EDBCFF3FFDB2AF3500B2488
:10058000E96E000E0C20EA6EFE0EDBCFEFFFD9CF36
:100590000BF0DACF0CF02D0EDBCFF3FFDB2AF3509C
:1005A0000B24E96E000E0C20EA6EFB0EDBCFEFFF92
:1005B0002E0EDB6AFB0EDB50F36E2E0EDBCFF4FF4C
:1005C000F350F45C25E22E0EDB50E76EFC0EDBCF21
:1005D000E9FFFD0EDBCFEAFFE750E926000EEA2235
:1005E000EF50E66ED9CF0BF0DACF0CF02E0EDBCF4A
:1005F000E6FF2D0EDB50E552E7240B24E96E000EDA
:100600000C20EA6EE552E750EF6E2E0EDB2AD2D7B1
:100610002D0EDBCFE7FF2E0EDB50E7262D0EE7CFAA
:10062000DBFFDB04E66ED950010FE66E000EDA2028
:10063000E66E20DFE552E552E552E76E2F0EE7CF7A
:10064000DBFFDB50AA0804E02F0EDB50BB0814E1EF
:10065000020EDB2A2D0EDB04E66ED950010FE66E8A
:10066000000EDA20E66E06DFE552E552E552E76E4F
:100670002F0EE7CFDBFFE5D7D9CF0BF0DACF0CF0A9
:100680002D0EDBCFF3FFDB2AF3500F010B24E96EB5
:10069000000E0C20EA6E2F0EDBCFEFFFD9CF0BF050
:1006A000DACF0CF02D0EDBCFF3FFDB2AF3500B2457
:1006B000E96E000E0C20EA6EBB0EEF6E2E0EDB6AAA
:1006C0002D0EDB50F36E2E0EDBCFF4FFF350F45CF7
:1006D00014E2D9CF0BF0DACF0CF02E0EDB500F0165
:1006E0000B24E96E000E0C20EA6EEF50E66E9AECD9
:1006F00004F0E5522E0EDB2AE3D7D2EC04F0300EE4
:10070000E15C02E2E16AE552E16EE552E7CFD9FF32
:020710001200D5
:0E071200DACFE4FFE2CFDAFFE9CFE4FFEACF6F
:10072000E4FFF6CFE4FFF7CFE4FFF5CFE4FFF3CF2C
:10073000E4FFF4CFE4FFFACFE4FF00EE00F00B0E8D
:10074000E80403E3EECFE4FFFBD700EE0BF0030E6B
:10075000E80403E3EECFE4FFFBD7E652D9CFE6FF90
:10076000E1CFD9FFE65293EC0FF0DF6E0C01895117
:10077000892BEA6A8C0FE96E0C0EEA22DFCFEFFFBD
:10078000800E895D01E3896B8B2BA49AE552E552BB
:10079000E7CFD9FFE55200EE0DF0030EE80403E3C6
:1007A000E5CFEDFFFBD700EE0AF00B0EE80403E304
:1007B000E5CFEDFFFBD7E5CFFAFFE5CFF4FFE5CFBF
:1007C000F3FFE5CFF5FFE5CFF7FFE5CFF6FFE5CF88
:1007D000EAFFE5CFE9FFE5CFDAFF1100DACFE4FF6A
:1007E000E2CFDAFFE9CFE4FFEACFE4FFE652D9CF68
:1007F000E6FFE1CFD9FFE6520B01025104E1ACA2C2
:10080000FED7AC9A1BD00151EA6A030FE96E0B0EBA
:10081000EA22EFCFDFFFDF50AD6E012B800E015DCE
:1008200001E3016B000EE76E0219E8AE02D002355B
:1008300003D0E750D880025501E20207E552E552A5
:10084000E7CFD9FFE552E5CFEAFFE5CFE9FFE5CFF6
:10085000DAFF1100DACFE4FFE2CFDAFFE9CFE4FFFD
:10086000EACFE4FFE652D9CFE6FFE1CFD9FFE65267
:100870000C01085104E172A2FED7729A1BD00751F5
:10088000EA6A090FE96E0C0EEA22EFCFDFFFDF50B4
:10089000736E072B800E075D01E3076B000EE76E9A
:1008A0000819E8AE02D0083503D0E750D8800855C3
:1008B00001E20807E552E552E7CFD9FFE552E5CF5F
:1008C000EAFFE5CFE9FFE5CFDAFF1100D9CFE6FF78
:1008D000E1CFD9FFE6527C0EDF6E0F0EE66EE66AC0
:1008E000DFCFE6FF5AEC0FF0E552E552E552AC8A55
:1008F000AC9EE552E552E7CFD9FF1200D9CFE6FF13
:10090000E1CFD9FFE6527C0EDF6E670EE66EE66A37
:10091000DFCFE6FF1EEC0FF0E552E552E552D08E38
:10092000718E728A729EA38AA58AE552E552E7CF3C
:10093000D9FF1200D9CFE6FFE1CFD9FFACA2FED795
:100940000B010051002BEA6A030FE96E0B0EEA223D
:10095000FE0EDBCFEFFF022B800E005D01E3006B8C
:10096000010E00D0E552E7CFD9FF1200D9CFE6FF44
:10097000E1CFD9FF72A2FED70C010651062BEA6A1D
:10098000090FE96E0C0EEA22FE0EDBCFEFFF082BFB
:10099000800E065D01E3066B010E00D0E552E7CF45
:1009A000D9FF1200D9CFE6FFE1CFD9FF060EE1262D
:1009B000010EF36E020EF3CFDBFF030EDB6A020EB5
:1009C000DBCF0BF0DB06030EDBCF0CF001E2DB0626
:1009D0000B500C1006E0040EE66E41EC10F0E552F0
:1009E000EED7000E0B01E76E0219E8AE02D0023519
:1009F00003D0E750D880025523E20151EA6A030F81
:100A0000E96E0B0EEA22010EEFCFDBFFACA2FED7A0
:100A1000010EDB50AD6EACA2FED70B01012B800E98
:100A2000015D01E3016B000EE76E0219E8AE02D032
:100A3000023503D0E750D880025501E20207D1D732
:100A4000010EF36E040EF3CFDBFF050EDB6A040E1E
:100A5000DBCF0BF0DB06050EDBCF0CF001E2DB0693
:100A60000B500C1006E0040EE66E41EC10F0E5525F
:100A7000EED70B6E060EE15C02E2E16AE552E16E32
:100A80000B50E552E7CFD9FF1200D9CFE6FFE1CFF7
:100A9000D9FF060EE126010EF36E020EF3CFDBFF47
:100AA000030EDB6A020EDBCF0BF0DB06030EDBCF9F
:100AB0000CF001E2DB060B500C1006E0040EE66EB3
:100AC00041EC10F0E552EED7000E0C01E76E08196C
:100AD000E8AE02D0083503D0E750D880085523E2AD
:100AE0000751EA6A090FE96E0C0EEA22010EEFCFF8
:100AF000DBFF72A2FED7010EDB50736E72A2FED72F
:100B00000C01072B800E075D01E3076B000EE76EFB
:100B10000819E8AE02D0083503D0E750D880085550
:100B200001E20807D1D7010EF36E040EF3CFDBFF0D
:100B3000050EDB6A040EDBCF0BF0DB06050EDBCF08
:100B40000CF001E2DB060B500C1006E0040EE66E22
:100B500041EC10F0E552EED70B6E060EE15C02E2BE
:100B6000E16AE552E16E0B50E552E7CFD9FF120082
:100B7000D9CFE6FFE1CFD9FFE652DF6AA39A000E94
:100B80000C01E76E8B19E8AE02D08B3503D0E7502D
:100B9000D8808B5502E2010EDF6EA38ADF5000D0B1
:100BA000E552E552E7CFD9FF1200D9CFE6FFE1CFFA
:100BB000D9FFE652DF6A9D9A000E0B01E76E851998
:100BC000E8AE02D0853503D0E750D880855502E2E3
:100BD000010EDF6E9D8ADF5000D0E552E552E7CF6F
:100BE000D9FF1200D9CFE6FFE1CFD9FFE6529D9A97
:100BF0000B018451842BEA6A860FE96E0B0EEA2200
:100C0000EFCFDFFF800E845D01E3846B000EE76EA3
:100C10008519E8AE02D0853503D0E750D8808555D8
:100C200001E285079D8ADF5000D0E552E552E7CF0B
:100C3000D9FF1200D9CFE6FFE1CFD9FFE652A39A40
:100C40000C018A518A2BEA6A8C0FE96E0C0EEA229B
:100C5000EFCFDFFF800E8A5D01E38A6B000EE76E47
:100C60008B19E8AE02D08B3503D0E750D8808B5576
:100C700001E28B079D8ADF5000D0E552E552E7CFB5
:040C8000D9FF120086
:0C0C8400D9CFE6FFE1CFD9FF030EE12637
:100C9000300EF36E010EF3CFDBFF750EF36E020E16
:100CA000F3CFDBFF010EDF6EDF0425E105DA000084
:100CB000000083928384000000008386000000000F
:100CC0008350800B01E0010EDF6E83968386000067
:100CD00000008396010EDB06020E01E2DB06D9500E
:100CE000010FE96EDACFEAFFEE50ED1003E1ECD927
:100CF000FF0E04D0D9D7E8D9000E00D00B6E030E3A
:100D0000E15C02E2E16AE552E16E0B50E552E7CFA9
:100D1000D9FF1200D9CFE6FFE1CFD9FF83928394A8
:100D20000000FE0EDB50F00B0B6E0F0E8C140B1040
:100D30008C6E00008386000000008396E552E7CFAA
:100D4000D9FF1200D9CFE6FFE1CFD9FF9BDF839215
:100D500083940000FE0EDB50F00B0B6E0F0E8C1414
:100D60000B108C6E00008386000000008396FE0E40
:100D7000DB38F00BF00B0B6E0F0E8C140B108C6E1F
:100D800000008386000000008396E552E7CFD9FF7C
:100D90001200D9CFE6FFE1CFD9FF74DF83828394BD
:100DA0000000FE0EDB50F00B0B6E0F0E8C140B10C0
:100DB0008C6E00008386000000008396FE0EDB38F8
:100DC000F00BF00B0B6E0F0E8C140B108C6E0000E2
:100DD0008386000000008396E552E7CFD9FF12001A
:100DE000D9CFE6FFE1CFD9FF0B0EE1266DD9280E52
:100DF000F36E010EF3CFDBFF020EDB6A010EDBCFD9
:100E00000BF0DB06020EDBCF0CF001E2DB060B5031
:100E10000C1006E0040EE66E41EC10F0E552EED741
:100E2000300EE66E77DFE5520A0EF36E030EF3CF57
:100E3000DBFF040EDB6A030EDBCF0BF0DB06040ED8
:100E4000DBCF0CF001E2DB060B500C1006E0040EC9
:100E5000E66E41EC10F0E552EED7300EE66E5ADF4A
:100E6000E5520A0EF36E050EF3CFDBFF060EDB6ACA
:100E7000050EDBCF0BF0DB06060EDBCF0CF001E23C
:100E8000DB060B500C1006E0040EE66E41EC10F091
:100E9000E552EED7300EE66E3DDFE5520A0EF36EF8
:100EA000070EF3CFDBFF080EDB6A070EDBCF0BF07C
:100EB000DB06080EDBCF0CF001E2DB060B500C105A
:100EC00006E0040EE66E41EC10F0E552EED7200E7F
:100ED000E66E20DFE5520A0EF36E090EF3CFDBFF5C
:100EE0000A0EDB6A090EDBCF0BF0DB060A0EDBCF46
:100EF0000CF001E2DB060B500C1006E0040EE66E6F
:100F000041EC10F0E552EED7280EE66E1BDFE552FD
:100F1000B9DEDF6EDF5010E10F0EE66E13DFE55233
:100F2000010EE66E0FDFE552040EE66E0BDFE552B2
:100F3000060EE66E07DFE5520B0EE15C03E200D021
:100F4000E16AE552E16EE552E7CFD9FF1200D9CF51
:100F5000E6FFE1CFD9FFFE0EDBCF1FFEE552E7CF64
:100F6000D9FF1200010EE66EEDDEE5520E011E6B9A
:100F70001200D9CFE6FFE1CFD9FFE652FE0EDB50DB
:100F80000E011F5D23E11E5101E137D0100E1E5DE1
:100F90000EE1800EE66ED6DEE552DF6A100EDF5CF3
:100FA00006E2140EE66ECEDEE552DF2AF7D7100E0B
:100FB000E66EC8DEE552200EE66EEBDEE552100E60
:100FC000E66EC0DEE5520E011E0717D0100E1E5D44
:100FD00005E1C00EE66EB6DEE55208D0200E1E5DBD
:100FE00005E31E6B020EE66EADDEE552FE0EDBCFB4
:100FF000E6FFCFDEE5520E011E2BE552E552E7CFAC
:10100000D9FF1200EDDE010EE66E9CDEE5520E0108
:101010001E6B1200D9CFE6FFE1CFD9FFE652010ED9
:10102000E66E90DEE552DF6A100EDF5C1CE2FD0E1C
:10103000DBCFE9FFFE0EDBCFEAFFEF50E66EDF50BD
:10104000EA6A200FE96E0E0EEA22E552E750EF6ED3
:10105000FD0EDBCFE9FFDB2AFE0EDBCFEAFF01E36B
:10106000DB2ADF2AE1D7C00EE66E6CDEE552DF6ACE
:10107000100EDF5C1CE2FD0EDBCFE9FFFE0EDBCFC6
:10108000EAFFEF50E66EDF50EA6A200FE96E0E0EBF
:10109000EA22E552E750EF6EFD0EDBCFE9FFDB2AD7
:1010A000FE0EDBCFEAFF01E3DB2ADF2AE1D7E552C0
:1010B000E552E7CFD9FF1200958E958C958A9588D9
:1010C0009596959495921200959E959C959A9598D3
:0810D00095969594959212008B
:0810D800080EE66EA7EC07F01C
:1010E000E5520D01006B7AD908EF0AF0D9CFE6FF7F
:1010F000E1CFD9FF070EE126DF68D950020FE66E77
:10110000000EDA20E66ED950030FE66E000EDA20EC
:10111000E66E59EC0CF0E552E552E552E552000955
:1011200001E1B9D0020EDBCFE6FF030EDBCFE6FF15
:10113000BCD8E552E552DF6EFF0EDF5C01E1ABD0BB
:101140000D010051030A01E194D0010A01E17FD0B1
:10115000060A72E0050A04E0010A01E09CD09BD077
:10116000230EDF5C04E13AD9B2EC07F062D0080E3E
:10117000DF5C2FE1020EF36E050EF3CFDBFFDB50D9
:10118000000816E2050EDB04EA6A020FE96E0D0E96
:10119000EA22EF50E66E050EDB50EA6A020FE96EB6
:1011A0000D0EEA22E552E750EF6E050EDB06E7D79B
:1011B000050EDB50EA6A020FE96E0D0EEA22300ED0
:1011C000EF6E020EE66E0D0EE66E33D9E552E55275
:1011D00030D0060EDB6A020EF36E060EDBCFF4FF94
:1011E000F350F45C16E2060EDB28EA6A020FE96EA1
:1011F0000D0EEA22EF50E66E060EDB50EA6A020F91
:10120000E96E0D0EEA22E552E750EF6E060EDB2A7C
:10121000E2D7060EDB50EA6A020FE96E0D0EEA22F3
:10122000DFCFEFFF020EE66E0D0EE66E02D9E5523D
:10123000E5520D01006B2FD0020EE66E0D0EE66E2C
:1012400093EC0BF0E552E5520D01006B24D0020E39
:10125000E66E0D0EE66E5BEC0AF0E552E552020E0C
:10126000E66E0D0EE66EE5D8E552E5520D01006B17
:1012700012D0020EE66E0D0EE66E07EC0BF0E55294
:10128000E552020EE66E0D0EE66ED3D8E552E5523B
:101290000D01006B00D0070EE15C02E2E16AE5524D
:1012A000E16EE552E7CFD9FF1200D9CFE6FFE1CFDB
:1012B000D9FFE652DF680D010051040A4EE0050A2D
:1012C00031E0010A0BE0FE0EDB50F76A090FF66E03
:1012D000210EF7220800F550DF6E4AD0FE0EDB50DB
:1012E000F76A090FF66E210EF7220800F550DF6E3F
:1012F0002A0EDF5C02E1DF6814D00C0EDF5C03E134
:10130000040E006F0ED00A0EDF5C03E1020E006FC8
:1013100008D00B0EDF5C03E1030E006F02D0010E5C
:10132000006F26D0FE0EDB50F76A090FF66E210E15
:10133000F7220800F550DF6E0A0EDF5C06E00B0EA8
:10134000DF5C03E02A0EDF5C02E1DF6805D00C0EF3
:10135000DF5C02E1040E006F0BD0FE0EDB50F76A7B
:10136000090FF66E210EF7220800F550DF6E00D04F
:10137000DF5000D0E552E552E7CFD9FF1200D9CFB8
:10138000E6FFE1CFD9FFE652DF6A0D010651DF5CCF
:1013900014E2DF50EA6A020FE96E0D0EEA22EF5006
:1013A000E66E1A51EA6A090FE96E0D0EEA22E5525D
:1013B000E750EF6E1A2BDF2AE8D71A51EA6A090FB5
:1013C000E96E0D0EEA22EF6A1A2B100E1A5D01E388
:1013D0001A6BE552E552E7CFD9FF1200D9CFE6FFED
:1013E000E1CFD9FFE652DF6A030EDF5C0AE2DF508D
:1013F000EA6A020FE96E0D0EEA22300EEF6EDF2A66
:10140000F3D70D01056BE552E552E7CFD9FF120086
:10141000100EE66EE66AE66A090EE66E0D0EE66EE0
:1014200027EC10F00B6E050EE15E0B500D011A6BF0
:101430001200D9CFE6FFE1CFD9FFE652B2EC07F0B8
:10144000DF6ADF50E76EFD0EDBCFE9FFFE0EDBCF7C
:10145000EAFFE750E926000EEA22EF5013E0DF50E2
:10146000E76EFD0EDBCFE9FFFE0EDBCFEAFFE750B4
:10147000E926000EEA22EF50E66EB9EC07F0E552DD
:0E148000DF2ADFD7E552E552E7CFD9FF120091
:02148E00560EF8
:10149000E66E170EE66EDD0EE66ECC0EE66EBB0E49
:1014A000E66EAA0EE66E47EC00F00B6E060EE15EED
:1014B0000B5012001200D9CFE6FFE1CFD9FF020E88
:1014C000E126E76EFD0EDBCFE9FFFE0EDBCFEAFF84
:1014D000E750E926000EEA22EFCF0BF0390E0B5C45
:1014E0000EE2020EE76EFD0EDBCFE9FFFE0EDBCF54
:1014F000EAFFE750E926000EEA22EF2A50D0020E5A
:10150000E76EFD0EDBCFE9FFFE0EDBCFEAFFE75013
:10151000E926000EEA22300EEF6E010EE76EFD0E98
:10152000DBCFE9FFFE0EDBCFEAFFE750E926000E36
:10153000EA22EFCF0BF0390E0B5C0EE2010EE76EE4
:10154000FD0EDBCFE9FFFE0EDBCFEAFFE750E92619
:10155000000EEA22EF2A23D0010EE76EFD0EDBCF4C
:10156000E9FFFE0EDBCFEAFFE750E926000EEA2294
:10157000300EEF6EFD0EDBCFE9FFFE0EDBCFEAFF94
:10158000EFCF0BF0390E0B5C08E2FD0EDBCFE9FF6D
:10159000FE0EDBCFEAFFEF2A02D0010EDF6EDF0482
:1015A0001CE1010EDB6A030EF36E010EDBCFF4FFCC
:1015B000F350F45C12E2010EDB50E76EFD0EDBCF60
:1015C000E9FFFE0EDBCFEAFFE750E926000EEA2234
:1015D000300EEF6E010EDB2AE6D7030EE66EFD0E2F
:1015E000DBCFE6FFFE0EDBCFE6FF010EE66E6CEC16
:1015F00002F0E552E552E552E552020EE15C02E2EC
:10160000E16AE552E16EE552E7CFD9FF1200D9CF8A
:10161000E6FFE1CFD9FF020EE76EFD0EDBCFE9FF5B
:10162000FE0EDBCFEAFFE750E926000EEA22EF507C
:1016300030080EE2020EE76EFD0EDBCFE9FFFE0E74
:10164000DBCFEAFFE750E926000EEA22EF0657D08B
:10165000010EE76EFD0EDBCFE9FFFE0EDBCFEAFFEA
:10166000E750E926000EEA22EF5030081CE2010E96
:10167000E76EFD0EDBCFE9FFFE0EDBCFEAFFE750A2
:10168000E926000EEA22EF06020EE76EFD0EDBCF22
:10169000E9FFFE0EDBCFEAFFE750E926000EEA2263
:1016A000390EEF6E2CD0FD0EDBCFE9FFFE0EDBCF47
:1016B000EAFFEF50300823E2FD0EDBCFE9FFFE0E1C
:1016C000DBCFEAFFEF06010EE76EFD0EDBCFE9FF91
:1016D000FE0EDBCFEAFFE750E926000EEA22390EC4
:1016E000EF6E020EE76EFD0EDBCFE9FFFE0EDBCFE5
:1016F000EAFFE750E926000EEA22390EEF6E030EEC
:10170000E66EFD0EDBCFE6FFFE0EDBCFE6FF010E41
:10171000E66E6CEC02F0E552E552E552E552E55218
:10172000E7CFD9FF1200D9CFE6FFE1CFD9FF030EF3
:10173000E66EFD0EDBCFE6FFFE0EDBCFE6FF010E11
:10174000E66E6CEC02F0E552E552E552E552E552E8
:10175000E7CFD9FF1200D9CFE6FFE1CFD9FF030EC3
:10176000E126FD0EDBCFE9FFFE0EDBCFEAFF010E27
:10177000EFCFDBFF020EDB6A010EDB50A00A30E088
:10178000010A23E0030A16E0220A0BE0020EDB6ADC
:10179000FB0EDBCFE9FFFC0EDBCFEAFF920EEF6E14
:1017A0002AD0FB0EDBCFE9FFFC0EDBCFEAFF800E79
:1017B000EF6E21D0FB0EDBCFE9FFFC0EDBCFEAFFA3
:1017C000A20EEF6E020EDB6A16D0FB0EDBCFE9FF36
:1017D000FC0EDBCFEAFFA10EEF6E020EDB6A0BD030
:1017E000020EDB6AFB0EDBCFE9FFFC0EDBCFEAFF6C
:1017F000A00EEF6E00D0020EDB500B6E030EE15C0C
:1018000003E200D0E16AE552E16E0B50E552E7CF0A
:04181000D9FF1200EA
:0C1814000D01A06BA16B716B726B736B0C
:101820007469756B1200D9CFE6FFE1CFD9FF020EC4
:10183000E1260D01A32B000EA423D9CFE6FFDACFBA
:10184000E6FF7ED8E552E552000901E128D00D01FE
:10185000A051A15D02E1A16BA06BA151E96EEA6A02
:10186000D890E936EA36760EE9260D0EEA22DFCF69
:10187000EFFFA151E96EEA6AD890E936EA36760EB2
:10188000E9260D0EEA22010EE926000EEA22A3CD7A
:10189000EFFF140EA15D01E2A12BA36BA46B020E5E
:1018A000E15C02E2E16AE552E16EE552E7CFD9FF81
:1018B0001200D9CFE6FFE1CFD9FF0D01A151A05D04
:1018C00031E2A051E96EEA6AD890E936EA36760E3E
:1018D000E9260D0EEA22EF50E66EFD0EDBCFE9FFA2
:1018E000FE0EDBCFEAFFE552E750EF6EA051E96E46
:1018F000EA6AD890E936EA36760EE9260D0EEA2233
:10190000010EE926000EEA22EF50E66EFB0EDBCF59
:10191000E9FFFC0EDBCFEAFFE552E750EF6EA02BAC
:10192000010E02D0000E00D0E552E7CFD9FF120021
:101930000D01A16BA06B716B726B736B74691200FC
:10194000D9CFE6FFE1CFD9FFE652DF68010E0B6E7B
:101950008150800B01E0010E0B5C6FE18150200B88
:1019600001E0010E0D6E8150040B01E0010EE82430
:101970000C6E8150100B01E0010E040DF3CF0BF043
:101980008150080B01E0010E080DF3500B100C10F4
:101990000D100F0BDF6EDF500F0A4CE0010A47E01D
:1019A000030A42E0010A3DE0070A38E0010A33E099
:1019B000030A2FE0010A2AE00F0A25E0010A20E0CD
:1019C000030A1BE0010A16E0070A11E0010A0CE015
:1019D000030A07E0010A02E0DF682FD0050EDF6E80
:1019E0002CD0060EDF6E29D0090EDF6E26D00A0E2F
:1019F000DF6E23D0020EDF6E20D0010EDF6E1DD011
:101A0000030EDF6E1AD0070EDF6E17D0040EDF6EE6
:101A100014D0DF6A12D00B0EDF6E0FD00F0EDF6E08
:101A20000CD00C0EDF6E09D0080EDF6E06D00E0E45
:101A3000DF6E03D00D0EDF6E00D0FF0EDF5C05E120
:101A40000D01A569A269000E17D00D01A551DF5C3B
:101A50000FE1A251DF5C0CE0FD0EDBCFE9FFFE0ED3
:101A6000DBCFEAFFDFCFEFFFDFCFA2FD010E04D017
:101A7000DFCFA5FD000E00D0E552E552E7CFD9FF3C
:021A8000120052
:0E1A8200DACFE4FFE2CFDAFFE9CFE4FFEACFEC
:101A9000E4FFF6CFE4FFF7CFE4FFF5CFE4FFF3CFA9
:101AA000E4FFF4CFE4FFFACFE4FF00EE00F00B0E0A
:101AB000E80403E3EECFE4FFFBD700EE0BF0030EE8
:101AC000E80403E3EECFE4FFFBD7E652F2940E0105
:101AD0000E2B000E0F23102B1123122B1323142B6C
:101AE0001523162B17231807195B193504E2185113
:101AF0000008000E195508E31A2B000E1B231C23A7
:101B00001D23C80E186F196B0251031107E005D091
:101B100003CEFAFF0E010251F96EFADF00CEE6FFA6
:101B200001CEE6FFEFEC0FF0E552E552E55200EE94
:101B30000DF0030EE80403E3E5CFEDFFFBD700EE65
:101B40000AF00B0EE80403E3E5CFEDFFFBD7E5CF8A
:101B5000FAFFE5CFF4FFE5CFF3FFE5CFF5FFE5CFE3
:101B6000F7FFE5CFF6FFE5CFEAFFE5CFE9FFE5CFE9
:101B7000DAFF1100DACFE4FFE2CFDAFFE9CFE4FFCA
:101B8000EACFE4FFF6CFE4FFF7CFE4FFF5CFE4FFC1
:101B9000F3CFE4FFF4CFE4FFFACFE4FF00EE00F070
:101BA0000B0EE80403E3EECFE4FFFBD700EE0BF0EF
:101BB000030EE80403E3EECFE4FFFBD7E652D9CFF0
:101BC000E6FFE1CFD9FFE652B2EC0FF0DF6E0B017A
:101BD0008351832BEA6A860FE96E0B0EEA22DFCF70
:101BE000EFFF800E835D01E3836B852B9E9AE552A8
:101BF000E552E7CFD9FFE55200EE0DF0030EE80401
:101C000003E3E5CFEDFFFBD700EE0AF00B0EE8048F
:101C100003E3E5CFEDFFFBD7E5CFFAFFE5CFF4FF18
:101C2000E5CFF3FFE5CFF5FFE5CFF7FFE5CFF6FF13
:0E1C3000E5CFEAFFE5CFE9FFE5CFDAFF1100CF
:021C3E00D9CFFC
:101C4000E6FFE1CFD9FFE652D1EC0FF0000EE66ED1
:101C5000E66AE00EE66EB10EE66E7BEC0EF0E55243
:101C6000E552E552E55202EC08F00AEC0CF06CEC9F
:101C700008F047EC0AF011EC00F00E01640E0E5D66
:101C8000000E0F5905E372EC10F00E010E6B0F6B96
:101C90000E01080E105D000E115905E313EC0CF057
:101CA0000E01106B116B0E01020E125D000E135926
:101CB00005E38AEC00F00E01126B136B0E01F40EBB
:101CC000145D010E155905E35AEC0AF00E01146B70
:101CD000156B0E01280E165D000E175905E376EC04
:101CE00008F00E01166B176B0400C7D7E552E552DA
:061CF000E7CFD9FF12004E
:0A1CF600D9CFE6FFE1CFD9FF9F0E22
:101D0000E66E0BEC10F0E552FD0EDBCF00FEFE0E92
:101D1000DBCF01FEFB0EDBCF02FEFC0EDBCF03FEB2
:101D2000F194FD0EDBCFE6FFFE0EDBCFE6FFEFEC1E
:101D30000FF0E552E552E552E7CFD9FF1200D9CFB7
:101D4000E6FFE1CFD9FF040EE126F29A1ACEDFFFBB
:101D5000010E1BCEDBFF020E1CCEDBFF030E1DCEE1
:101D6000DBFFF28ADECF04F0DECF05F0DECF06F037
:101D7000DDCF07F0DD52DD52040EE15C03E200D05E
:101D8000E16AE552E16EE552E7CFD9FF1200F29E1B
:0E1D90000E011A6B1B6B1C6B1D6BF28E12008A
:021D9E002C0E09
:101DA000F66E000EF76E000EF86E0F010900F5508A
:101DB000056F0900F550066F03E1056701D03DD0BE
:101DC0000900F550006F0900F550016F0900F5504A
:101DD000026F09000900F550E96E0900F550EA6E3E
:101DE000090009000900F550036F0900F550046F60
:101DF00009000900F6CF07FFF7CF08FFF8CF09FF6A
:101E000000CFF6FF01CFF7FF02CFF8FF0F0103531A
:101E100002E1045307E00900F550EE6E0307F8E213
:101E20000407F9D707CFF6FF08CFF7FF09CFF8FF70
:0C1E30000F010507000E065BBFD7120073
:041E3C00D9CFE6FF15
:101E4000DACFE6FFE1CFD9FFE2CFDAFF726A716A3B
:101E5000FD0EDBB07288DBA202D0728C718CDBB419
:101E6000728EDBA602D0718801D0718ADBA802D005
:101E7000728401D07294DBBA7186DBAC02D0A38A83
:101E800001D0A39ADBAE02D0A38801D0A398FB0EA9
:101E9000DB50756EFC0EDBCF0CF00CC00BF00C6A47
:101EA0000B50766E728A718EE552E5CFDAFFE7CF7E
:041EB000D9FF120044
:0C1EB400D9CFE6FFDACFE6FFE1CFD9FF7F
:101EC000E2CFDAFFAC6AAB6AFD0EDBB0AC88DBA216
:101ED00002D0AC8CAB8CDBB4AC8EDBA602D0AB8872
:101EE00001D0AB8ADBB8AC84DBBAAB86DBAC02D00A
:101EF0009D8A01D09D9ADBAE02D09D8801D09D982D
:101F0000FB0EDB50AF6EFC0EDBCF0CF00CC00BF009
:101F10000C6A0B50B06EAC8AAB8EE552E5CFDAFF9F
:061F2000E7CFD9FF12001B
:0A1F2600D9CFE6FFDACFE6FFE1CFE6
:101F3000D9FFE2CFDAFFE652F20E0F010C1771ACB7
:101F400003D00C9171B00C8171B40C8571B20C8707
:101F50007450DF6EDF50E552E552E5CFDAFFE7CF90
:041F6000D9FF120093
:0C1F6400D9CFE6FFDACFE6FFE1CFD9FFCE
:101F7000E2CFDAFFE652F20E0F010D17ABAC03D041
:101F80000D91ABB00D81ABB40D85ABB20D87AE50EA
:101F9000DF6EDF50E552E552E5CFDAFFE7CFD9FF3C
:021FA00012002D
:0E1FA200C26A0F01386B396B3A6B3B6B3C6BBC
:101FB000700ED36E96908490949C948E959E959C72
:101FC000959A959895969594959281689296809613
:0E1FD00092908090929480949292809212004F
:021FDE00D9CF59
:101FE000E6FFDACFE6FFE1CFD9FFE2CFDAFFE65234
:101FF000E652FC0EDBCFDEFFDBCFDDFF010EDB5058
:10200000D76EDF50D66EE552E552E552E5CFDAFFE6
:06201000E7CFD9FF12002A
:0A201600D9CFE6FFDACFE6FFE1CFF5
:10202000D9FFE2CFDAFFFD0EDB507F0BD56ED76A0A
:10203000D66AF294FD0EDBAE02D0F28A01D0F29A9B
:0E204000D58EE552E5CFDAFFE7CFD9FF1200CB
:02204E00FE0E84
:10205000E3CFE9FFFF0EE3CFEAFFE9CFF3FFEACFDB
:10206000F4FFFB0EE35003E1FC0EE35009E0FB0E2E
:10207000E30602E2FC0EE306FD0EE350EE6EF1D73E
:0220800012004C
:0E208200FF0EE3500E6E480E01D04C0EE76EBE
:10209000E72EFED7E76AE72EFED70E2EF7D7000011
:0220A00012002C
:0E20A200380EF36E00EE00F00F0E01D81200A3
:1020B000EA6002D0EE6AFCD7F350E9601200EE6AE3
:0220C000FCD74B
:0E20C20010EE60F020EE60F0F86A0A9CCFECA1
:0E20D0000EF003EC00F01FEC0EF0FBD7120038
:0220DE000F01F0
:1020E0000F6B12000F010F0503E10F6B849003D0FB
:0820F000010E0F6F8480120045
:0820F8002020202020202020E0
:09210000202020202020202000D6
:072109003132330834353692
:092110000A3738390B2A30230C80
:0721190000000000000000BF
:10212000FF000000000000000000000000000000B0
:10213000000000000000000000000000000000009F
:10214000000000000000000000000000000000008F
:1021500000000000FF000000000000000000000080
:10216000000000000000000000000000000000006F
:062170000000000000FF6A
:0A217600000000000000000000005F
:10218000000000000000000000000000000000004F
:10219000000000000000000000000000000000003F
:1021A000000000000000000000000000000000002F
:1021B000000000000000000000000000000000001F
:1021C000000000000000000000000000000000000F
:1021D00000000000000000000000000000000000FF
:1021E00000000000000000000000000000000000EF
:1021F00000000000000000000000000000000000DF
:1022000000000000000000000000000000000000CE
:1022100000000000000000000000000000000000BE
:1022200000000000000000000000000000000000AE
:10223000000000000000000000000000000000009E
:10224000000000000000000000000000000000008E
:10225000000000000000000000000000000000007E
:10226000000000000000000000000000000000006E
:0C22700000000000000000000000000062
:04227C00000000005E
:10228000000000000000000000000000000000004E
:0A22900000000000C800000000007C
:06229A000000000000003E
:1022A000000000000000000000000000000000002E
:0C22B00000000000000000000000000022
:0422BC00000000001E
:1022C000000000000000000000000000000000000E
:1022D00000000000000000000000000000000000FE
:1022E00000000000000000000000000000000000EE
:1022F00000000000000000000000000000000000DE
:0523000000FF0000FFDA
:0B2305000000000000000000000000CD
:1023100000000000000000000000000000000000BD
:1023200000000000000000000000000000000000AD
:10233000000000000000000000000000000000009D
:10234000000000000000000000000000000000008D
:10235000000000000000000000000000000000007D
:10236000000000000000000000000000000000006D
:10237000000000000000000000000000000000005D
:10238000000000000000000000000000000000004D
:10239000000000000000000000000000000000003D
:1023A000000000000000000000000000000000002D
:1023B000000000000000000000000000000000001D
:1023C000000000000000000000000000000000000D
:1023D00000000000000000000000000000000000FD
:1023E00000000000000000000000000000000000ED
:1023F00000000000000000000000000000000000DD
:1024000000000000000000000000000000000000CC
:09241000000000000000000000C3
:020000040030CA
:0100010008F6
:0100020001FC
:0100030024D8
:01000500BD3D
:010006008079
:010008000FE8
:01000900C036
:01000A000FE6
:01000B00E014
:01000C000FE4
:01000D0040B2
:00000001FF
