:020000040000FA
:06000000D7EF0AF0120028
:020006001200E6
:08000800F2A402D020EF07F082
:100010009EA002D095EF07F09EAA02D079EF05F0DE
:080020001200D08EF28E1200D6
:08002800C26A0F0EC16EB50E95
:10003000C06E700ED3129B8C9490949C948E956A93
:10004000929292949296929896909692849212009E
:1000500009008317000092020000020000007817D8
:1000600000007E0200000B000000771700009602DF
:100070000000010000006E17000089020000090066
:1000800000005A170000D0010000140000001617ED
:1000900000008C010000440000008A1600000001EE
:1000A00000008C00000078160000E401000012003F
:0E00B0000000FA150000000200007E000000B3
:0200BE00D9CF98
:1000C000E6FFE1CFD9FF030EE126FE0EDB50030869
:1000D00002E2000E19D0FE0EDBCFEBF1DF6A010168
:1000E000EB51DF5C0AE2DF50EA6AE80FE96E010ECD
:1000F000EA2288C2EFFFDF2AF2D7E50EF26F010E87
:10010000F36FEC6B010E00D0106E030EE15C02E2A7
:10011000E16AE552E16E1050E552E7CFD9FF1200D7
:100120000101E451010A14E0010A01E043D0EC515D
:10013000EA6AF225E96EF351EA22EF50E66E61D9E0
:10014000E5520101EC2BEB51EC5D01E3EC6B32D09D
:10015000F1512EE0EC51EA6AF225E96EF351EA2200
:10016000EF50E66E4ED9E5520101EC2BEB51EC5D00
:1001700001E3EC6BED2B000EEE23EF51ED5DF05142
:10018000EE5915E3FF0EF15D01E0F107ED6BEE6B4B
:10019000E50EF21902E1010EF31905E1E80EF26F26
:1001A000010EF36F04D0E50EF26F010EF36F01D074
:1001B00007D900D01200D9CFE6FFE1CFD9FFE65230
:1001C000DF6ADF6A0101EB51DF5C16E2DF50E76EA8
:1001D000FD0EDBCFE9FFFE0EDBCFEAFFE750E9269D
:1001E000000EEA22EF50E66E6BD9E552000902E1FB
:1001F000000E41D0DF2AE6D7DF6AEB51DF5C38E240
:10020000DF50E76EFD0EDBCFE9FFFE0EDBCFEAFF2E
:10021000E750E926000EEA22EF50200809E1DF50FE
:10022000EA6AE50FE96E010EEA2288C2EFFF1ED0EE
:10023000DF50E76EFD0EDBCFE9FFFE0EDBCFEAFFFE
:10024000E750E926000EEA22EF50D00FEA6A7E0F4F
:10025000E96E020EEA22EF50E66EDF50EA6AE50F21
:10026000E96E010EEA22E552E750EF6EDF2AC5D7AC
:10027000EC6B010E00D0E552E552E7CFD9FF12003A
:10028000D9CFE6FFE1CFD9FFE652DF6ADF6A01018D
:10029000EB51DF5C19E2DF50E76EFD0EDBCFE9FFCB
:1002A000FE0EDBCFEAFFE750E926000EEA22EF5010
:1002B000E66EDF50EA6AE50FE96E010EEA22E552CA
:1002C000E750EF6EDF2AE3D7EC6BE552E552E7CF5C
:1002D000D9FF1200D9CFE6FFE1CFD9FFE652DF6A9E
:1002E000FE0EDBCF10F00101EB51D880105402E27A
:1002F000000E2DD0FD0EDBCFE6FFE2D8E55200095F
:1003000002E1000E24D0FD0EDB5020080AE1FE0EB3
:10031000DB50EA6AE50FE96E010EEA2288C2EFFFC0
:1003200014D0FD0EDB50D00FEA6A7E0FE96E020E8C
:10033000EA22EF50E66EFE0EDB50EA6AE50FE96E48
:10034000010EEA22E552E750EF6E010E00D0E552B1
:10035000E552E7CFD9FF1200D9CFE6FFE1CFD9FFB1
:10036000E652DF6AFC0EDB5002E1DF5024D0FC0EC7
:10037000DB50FF0804E1FC0EDBCFF1F105D0FC0EF1
:10038000DB50E8240101F16FFD0EDBCFEFF1FE0E33
:10039000DBCFF0F1010E0F0B010105E0D890F03337
:1003A000EF33E806FBE10101ED6BEE6B010EE46F4C
:1003B000DF6EDF5000D0E552E552E7CFD9FF1200E3
:1003C0000101E50EF26F010EF36FE46B1200D9CF5D
:1003D000E6FFE1CFD9FFE652DF6A0101EB51DF5CB6
:1003E0000AE2DF50EA6AE50FE96E010EEA2288C2EE
:1003F000EFFFDF2AF2D7EC6BE552E552E7CFD9FFEA
:100400001200D9CFE6FFE1CFD9FF80928094809689
:100410008098080EE66EF2EC0AF0E552FE0EDB5014
:10042000836E0101EC51030A0DE0010A09E0030AA1
:1004300005E0010A01E008D0808206D0808404D063
:10044000808602D0808800D0080EE66EF2EC0AF0BA
:10045000E552E552E7CFD9FF1200D9CFE6FFE1CF51
:10046000D9FF020EE126FE0EDB50DF6EFE0EDBCF63
:10047000E6FFFD0EDB50E552E724DF5C17E2DF50BC
:10048000EA6AE50FE96E010EEA22010EEFCFDBFF0B
:10049000DB508009E66EDF50EA6AE50FE96E010E77
:1004A000EA22E552E750EF6EDF2AE0D7020EE15C68
:1004B00002E2E16AE552E16EE552E7CFD9FF1200B0
:1004C000D9CFE6FFE1CFD9FFE652DF6AFE0EDB505F
:1004D000200803E1010EDF6E0ED0300EF36EFE0E2B
:1004E000DBCFF4FFF350F45C06E3FE0EDB5039087B
:1004F00002E3010EDF6EDF5000D0E552E552E7CF98
:10050000D9FF1200D9CFE6FFE1CFD9FFE652DF6A6B
:10051000FC0EDB50DF6EFB0EDB50DF5C16E2DF50C3
:10052000E76EFD0EDBCFE9FFFE0EDBCFEAFFE75003
:10053000E926000EEA22EF50E66EC2DFE55200091E
:1005400002E1000E4AD0DF2AE6D7FC0EDB50DF6E58
:10055000FB0EDBCFE6FFFC0EDB50E552E724DF5C51
:1005600038E2DF50E76EFD0EDBCFE9FFFE0EDBCF9A
:10057000EAFFE750E926000EEA22EF50200809E1E1
:10058000DF50EA6AE50FE96E010EEA2288C2EFFF4A
:100590001ED0DF50E76EFD0EDBCFE9FFFE0EDBCF96
:1005A000EAFFE750E926000EEA22EF50D00FEA6A90
:1005B0007E0FE96E020EEA22EF50E66EDF50EA6A25
:1005C000E50FE96E010EEA22E552E750EF6EDF2AF1
:1005D000BFD70101EC6B010E00D0E552E552E7CF29
:1005E000D9FF1200D9CFE6FFE1CFD9FFE652FD0EC9
:1005F000DBCFEFF1FE0EDBCFF0F1010E0F0B0101AF
:1006000005E0D890F033EF33E806FBE10101ED6B34
:10061000EE6BFC0EDB50F46FF56BDF6AEB51DF5CC9
:100620001CE2DF50106E116AF451101802E1F5510E
:10063000111811E0DF50EA6AE50FE96E010EEA22B7
:10064000EF50E66EDF50EA6AE80FE96E010EEA222B
:10065000E552E750EF6EDF2AE1D7E80EF425E96EA8
:10066000010EF521EA6EEF6A010EE46FE552E552E4
:10067000E7CFD9FF1200D9CFE6FFE1CFD9FFE6528D
:100680000101F1417F0BDF6EDF5000D0E552E552F2
:06069000E7CFD9FF1200C4
:0A069600D9CFE6FFE1CFD9FFFE0E39
:1006A000DBCF01F1FD0EDBCF02F1FC0EDBCF03F15E
:1006B000FB0EDBCF04F1F90EDBCF81F1FA0EDBCFBD
:1006C00082F104D8E552E7CFD9FF1200240EE66E7E
:1006D000F40EE66EE66AE66A1AEC06F0E552E552BA
:1006E000E552E55201017D6B7E6B010E006F7F6B61
:1006F000FA0E806F87C183F188C184F189C185F1C9
:100700008AC186F100C18BF1120001017D6B7E6B05
:10071000010E006F7F6BFA0E806F87C183F188C175
:1007200084F189C185F18AC186F100C18BF1120083
:10073000D9CFE6FFE1CFD9FF060EE126DF6A39EC1B
:1007400008F004C087F105C088F106C089F107C030
:100750008AF1830EE96E010EEA6EEE5001018719EF
:1007600009E1EE50881906E1EE50891903E1EE50D7
:100770008A1900E113E000518B5D08E1020E005D73
:1007800005E18007805102E1A1DFBED087C183F17E
:1007900088C184F189C185F18AC186F10051030ABB
:1007A00001E1ADD0010A16E0030A02E0AEDFAAD0F3
:1007B000DBEC06F0000901E1A7D0F8EC06F0DF6EF3
:1007C00001010151DF5C05E17D6B020E006FFA0E45
:1007D000806F98D0DBEC06F0000901E195D0F8ECD1
:1007E00006F0DF6E01010251DF5C74E1020EDB6A8C
:1007F000030EDB68D950030FE66E000EDA20E66EBA
:100800008DD8E552E552E76E020EE7CFDBFFDB50F5
:10081000020A54E0030A05E0010A01E057D075DF3F
:1008200073D001018151821147E0D950040FE66E67
:10083000000EDA20E66E7F0EE66E010EE66E070E03
:10084000E66E010EE66E05D082C1FAFF010181510C
:10085000F96EFADF106E060EE15E105001017E6F38
:10086000FA0E416F7E2B7FC142F17E2BDE52020ECB
:10087000DD6E7E51F36E010EDBCFF4FFF350F45CBE
:100880001AE2040EDBCFE9FF050EDBCFEAFFEF50E3
:10089000E66E010EDB50EA6A410FE96E010EEA22B4
:1008A000E552E750EF6E040EDB2A050E01E3DB2A6A
:1008B000010EDB2ADED701D028DF08D00101FA0EB5
:1008C000416F7E2B7FC142F17E2B00D00101030ED0
:1008D000006F14D07D517D2BEA6A050FE96E010E81
:1008E000EA22DFCFEFFF3C0E7D5D08E3FA0E416F99
:1008F0007E2B900E426F7E2B030E006F03D05AD8D2
:1009000004DF00D000C18BF1060EE15C02E2E16A77
:10091000E552E16EE552E7CFD9FF1200D9CFE6FFED
:10092000E1CFD9FF020EE12601017D05EA6A050F3C
:10093000E96E010EEA22EFCFDFFF010EDB6AFA0E4D
:10094000055D05E0FF0E055D02E0000E27D07D0588
:10095000E66E050EE66E010EE66E99D8E552E5529A
:10096000E552E76E010EE7CFDBFFDB50DF5C0CE109
:1009700001017D077D51EA6A050FE96E010EEA2249
:10098000EF6A010E0BD00AD0FD0EDBCFE9FFFE0EA1
:10099000DBCFEAFF910EEF6E000E00D0106E020E5C
:1009A000E15C02E2E16AE552E16E1050E552E7CF08
:1009B000D9FF1200D9CFE6FFE1CFD9FF020EE12621
:1009C000DF6A010EDB6A7EC1E6FF410EE66E010EB4
:1009D000E66E5DD8E552E552E552DF6E03C1E6FFF3
:1009E0007EEC06F0E552010EDB6A01017E51F36EEA
:1009F000010EDBCFF4FFF350F45C0FE2010EDB508D
:100A0000EA6A410FE96E010EEA22EF50E66E7EECD3
:100A100006F0E552010EDB2AE8D7DFCFE6FF7EECD9
:100A200006F0E55204C1E6FF7EEC06F0E552040054
:100A3000020EE15C02E2E16AE552E16EE552E7CFC7
:100A4000D9FF1200D9CFE6FFE1CFD9FFFD0EDBCFF2
:100A5000F6FFFE0EDBCFF7FF0800F55012E0FD0EAB
:100A6000DBCFF6FFFE0EDBCFF7FF0800F550E66E9A
:100A70007EEC06F0E552FD0EDB2AFE0E01E3DB2ADA
:100A8000E5D79AEC06F0E552E7CFD9FF1200D9CFAF
:100A9000E6FFE1CFD9FF030EE126DF6A010EDB6A34
:100AA000FC0EDB50F36E010EDBCFF4FFF350F45C71
:100AB00012E2010EDB50E76EFD0EDBCFE9FFFE0E0A
:100AC000DBCFEAFFE750E926000EEA22EF50DF1AFB
:100AD000010EDB2AE5D7DF50106E030EE15C03E266
:100AE00000D0E16AE552E16E1050E552E7CFD9FF40
:020AF0001200F2
:0E0AF200DACFE4FFE2CFDAFFE9CFE4FFEACF8C
:100B0000E4FFF6CFE4FFF7CFE4FFF5CFE4FFF3CF48
:100B1000E4FFF4CFE4FFFACFE4FF00EE00F0100EA4
:100B2000E80403E3EECFE4FFFBD700EE10F0040E81
:100B3000E80403E3EECFE4FFFBD7E652D9CFE6FFAC
:100B4000E1CFD9FFE65254EC0AF0DF6E02013F51CB
:100B50003F2BEA6A420FE96E020EEA22DFCFEFFF77
:100B60003C0E3F5D01E33F6B412B9E9AE552E552FF
:100B7000E7CFD9FFE55200EE13F0040EE80403E3DB
:100B8000E5CFEDFFFBD700EE0FF0100EE80403E316
:100B9000E5CFEDFFFBD7E5CFFAFFE5CFF4FFE5CFDB
:100BA000F3FFE5CFF5FFE5CFF7FFE5CFF6FFE5CFA4
:100BB000EAFFE5CFE9FFE5CFDAFF1100DACFE4FF86
:100BC000E2CFDAFFE9CFE4FFEACFE4FFE652D9CF84
:100BD000E6FFE1CFD9FFE6520201025104E1ACA2E7
:100BE000FED7AC9A1BD00151EA6A030FE96E020EE0
:100BF000EA22EFCFDFFFDF50AD6E012B3C0E015D2F
:100C000001E3016B000EE76E0219E8AE02D0023577
:100C100003D0E750D880025501E20207E552E552C1
:100C2000E7CFD9FFE552E5CFEAFFE5CFE9FFE5CF12
:100C3000DAFF1100D9CFE6FFE1CFD9FFE6527C0EF3
:100C4000DF6ED950FB0FE96EFF0EDA20EA6EEE2A56
:100C5000000EEE22EE22EE22D950FB0FE96EFF0EBF
:100C6000DA20EA6E040EE76ED890EF36010EEB360E
:100C7000020EEB36030EEB36E706F6E1106A480E7D
:100C8000116EE80E126E010E136E10C004F011C04A
:100C900005F012C006F013C007F0FB0EDBCF09F021
:100CA000FC0EDBCF0AF0FD0EDBCF0BF0FE0EDBCF30
:100CB0000CF00FEC0AF0FB0E04C0DBFFFC0E05C0CD
:100CC000DBFFFD0E06C0DBFFFE0E07C0DBFFFB0EE9
:100CD000DBCFE6FFFC0EDBCFE6FFDFCFE6FFCAECA3
:100CE00009F0E552E552E552D08EAC8AAC9EF28C0A
:100CF0009F8AE552E552E7CFD9FF1200D9CFE6FF30
:100D0000E1CFD9FFACA2FED702010051002BEA6A65
:100D1000030FE96E020EEA22FE0EDBCFEFFF022B7D
:100D20003C0E005D01E3006B010E00D0E552E7CF01
:100D3000D9FF1200D9CFE6FFE1CFD9FF020EE1269D
:100D4000000E0201E76E0219E8AE02D0023503D0B0
:100D5000E750D880025523E20151EA6A030FE96E99
:100D6000020EEA22010EEFCFDBFFACA2FED7010E8E
:100D7000DB50AD6EACA2FED70201012B3C0E015D33
:100D800001E3016B000EE76E0219E8AE02D00235F6
:100D900003D0E750D880025501E20207D1D7106E88
:100DA000020EE15C02E2E16AE552E16E1050E552AA
:100DB000E7CFD9FF1200D9CFE6FFE1CFD9FFE65246
:100DC000DF6A9D9A000E0201E76E4119E8AE02D07B
:100DD000413503D0E750D880415502E2010EDF6E65
:100DE0009D8ADF5000D0E552E552E7CFD9FF1200CF
:100DF000D9CFE6FFE1CFD9FFE6529D9A02014051DB
:100E0000402BEA6A420FE96E020EEA22EFCFDFFFC3
:100E10003C0E405D01E3406B000EE76E4119E8AE09
:100E200002D0413503D0E750D880415501E2410757
:100E30009D8ADF5000D0E552E552E7CFD9FF12007E
:100E4000DACFE4FFE2CFDAFFE9CFE4FFEACFE4FF55
:100E5000F6CFE4FFF7CFE4FFF5CFE4FFF3CFE4FFF5
:100E6000F4CFE4FFFACFE4FF00EE00F0100EE80448
:100E700003E3EECFE4FFFBD700EE10F0040EE8042E
:100E800003E3EECFE4FFFBD7E652F2940101D82B47
:100E9000000ED923DA2BDB23DC2BDD23DE07DF5B1F
:100EA000DF3504E2DE510008000EDF5508E3E02BD9
:100EB000000EE123E223E323C80EDE6FDF6BD25185
:100EC000D31107E005D0D3C1FAFF0101D251F96E69
:100ED000FADFD0C1E6FFD1C1E6FF8FEC0AF0E552A0
:100EE000E552E55200EE13F0040EE80403E3E5CF0B
:100EF000EDFFFBD700EE0FF0100EE80403E3E5CFA3
:100F0000EDFFFBD7E5CFFAFFE5CFF4FFE5CFF3FF29
:100F1000E5CFF5FFE5CFF7FFE5CFF6FFE5CFEAFF39
:100F2000E5CFE9FFE5CFDAFF1100DACFE4FFE2CF4A
:100F3000DAFFE9CFE4FFEACFE4FFF6CFE4FFF7CF33
:100F4000E4FFF5CFE4FFF3CFE4FFF4CFE4FFFACF03
:100F5000E4FF00EE00F0100EE80403E3EECFE4FF40
:100F6000FBD700EE10F0040EE80403E3EECFE4FF3D
:100F7000FBD7E6529E90D4C1E6FFD5C1E6FF73ECE5
:100F80000AF0E552E5520101D651D71107E005D02C
:100F9000D7C1FAFF0101D651F96EFADFE55200EE32
:100FA00013F0040EE80403E3E5CFEDFFFBD700EEFA
:100FB0000FF0100EE80403E3E5CFEDFFFBD7E5CF1C
:100FC000FAFFE5CFF4FFE5CFF3FFE5CFF5FFE5CF7F
:100FD000F7FFE5CFF6FFE5CFEAFFE5CFE9FFE5CF85
:100FE000DAFF1100D9CFE6FFE1CFD9FF9F0EE66E01
:100FF000ABEC0AF0E552FD0EDBCFD0F1FE0EDBCFFD
:10100000D1F1FB0EDBCFD2F1FC0EDBCFD3F1FD0E25
:10101000DBCFE6FFFE0EDBCFE6FF8FEC0AF0E552FA
:10102000E552E552E7CFD9FF1200D9CFE6FFE1CF75
:10103000D9FFC50EE66E33EC0AF0E552FD0EDBCFAC
:10104000E6FFFE0EDBCFE6FF73EC0AF0E552E55259
:101050009F80FD0EDBCFD4F1FE0EDBCFD5F1FB0E72
:10106000DBCFD6F1FC0EDBCFD7F1E552E7CFD9FFCE
:101070001200D9CFE6FFE1CFD9FF040EE126F29AA4
:10108000E0C1DFFF010EE1C1DBFF020EE2C1DBFFC9
:10109000030EE3C1DBFFF28ADECF04F0DECF05F002
:1010A000DECF06F0DDCF07F0DD52DD52040EE15C4D
:1010B00003E200D0E16AE552E16EE552E7CFD9FFE5
:1010C0001200F29E0101E06BE16BE26BE36BF28ECA
:0210D00012000C
:0E10D200D9CFE6FFE1CFD9FFE652DF6A030E69
:1010E000DF5C0AE2DF50EA6A8C0FE96E010EEA2249
:1010F000300EEF6EDF2AF3D78C0EE66E010EE66E31
:10110000DBEC00F0E552E5520101050E906FE5526F
:10111000E552E7CFD9FF1200D9CFE6FFE1CFD9FFE3
:10112000E6520101902B050E905D01E384928F51F0
:10113000000839E23BEC03F0000935E13C0E010107
:10114000CF5D01E1CF6BDF6A030EDF5C14E2CF51AC
:10115000EA6A920FE96E010EEA22EF50E66EDF5066
:10116000EA6A8C0FE96E010EEA22E552E750EF6E53
:10117000DF2ACF2BE9D78C0EE66E010EE66EDBEC94
:1011800000F0E552E5528482030EE66EE80EE66E4C
:10119000030EE66EACEC01F0E552E552E5520101BA
:1011A000906B916B8F0701019051050801E38472E8
:1011B000E552E552E7CFD9FF1200D9CFE6FFE1CFE4
:1011C000D9FF020EE126010EDB6ADF6A030EDF5C47
:1011D0001DE2020ED880DF54E76EFD0EDBCFE9FF83
:1011E000FE0EDBCFEAFFE750E926000EEA22EF50C1
:1011F000E66E0101CE51EA6A920FE96E010EEA2213
:10120000E552E750EF6ECE2BDF2AE0D73C0E01010E
:10121000CE5D01E1CE6B8F2BFB0EDBCFE9FFFC0E29
:10122000DBCFEAFF810EEF6E010EDB50106E020E77
:10123000E15C03E200D0E16AE552E16E1050E55254
:06124000E7CFD9FF120008
:0A124600D9CFE6FFE1CFD9FF040E77
:10125000E126DF6A030EDB6A14EC00F0030EE66E93
:101260005FEC00F0E552200EE66E010EE66EBF0E5A
:10127000E66EE00EE66EF2EC07F0E552E552E5525E
:10128000E552BA0EE66E110EE66EDD0EE66ECC0E7F
:10129000E66EBB0EE66EAA0EE66E4BEC03F0106E29
:1012A000060EE15E105069EC08F011EC00F0F28ED1
:1012B0000101580ED85D020ED95905E3E8EC0AF099
:1012C0000101D86BD96B0101F40EDC5D010EDD5913
:1012D00005E38CEC08F00101DC6BDD6B98EC03F0AE
:1012E000E7D7040EE15C02E2E16AE552E16EE55205
:0612F000E7CFD9FF120058
:0A12F600500EF66E000EF76E000EAB
:10130000F86E01010900F550FB6F0900F550FC6F04
:1013100003E1FB6701D03DD00900F550F66F0900ED
:10132000F550F76F0900F550F86F09000900F55006
:10133000E96E0900F550EA6E090009000900F55050
:10134000F96F0900F550FA6F09000900F6CFFDF1B9
:10135000F7CFFEF1F8CFFFF1F6C1F6FFF7C1F7FFC7
:10136000F8C1F8FF0101F95302E1FA5307E009005F
:10137000F550EE6EF907F8E2FA07F9D7FDC1F6FF6E
:10138000FEC1F7FFFFC1F8FF0101FB07000EFC5B88
:04139000BFD71200B1
:0C139400D9CFE6FFDACFE6FFE1CFD9FFAA
:1013A000E2CFDAFFAC6AAB6AFD0EDBB0AC88DBA241
:1013B00002D0AC8CAB8CDBB4AC8EDBA602D0AB889D
:1013C00001D0AB8ADBB8AC849E98DBBAAB86DBACD1
:1013D00002D09D8A01D09D9A9E9ADBAE02D09D8854
:1013E00001D09D98FB0EDB50AF6EFB0EFC0EDBCFE9
:1013F00011F011C010F0116A1050B06EAC8AAB8EB3
:10140000949C948EAC50100B04E0AC50800B01E126
:0E141000948CE552E5CFDAFFE7CFD9FF12004A
:02141E00036A5F
:10142000026A016A006A200EE76ED890043605361B
:101430000636073600360136023603360950005CA0
:101440000A5001580B5002580C50035809E3095038
:10145000005E0A50015A0B50025A0C50035A042ADB
:06146000E72EE4D71200A4
:0A146600D9CFE6FFDACFE6FFE1CFB1
:10147000D9FFE2CFDAFFFD0EDB507E0BCD6EFD0E05
:10148000DBAC02D0CD8E01D0CD9ECF6ACE6A9E90CD
:10149000DBAE02D09D8001D09D90CD80E552E5CF9E
:0814A000DAFFE7CFD9FF1200CB
:0814A800D9CFE6FFDACFE6FF21
:1014B000E1CFD9FFE2CFDAFFE652F20E0201941734
:1014C000ABAC03D09491ABB09481ABB49485ABB288
:1014D0009487AE50DF6EDF50E552E552E5CFDAFF7C
:0614E000E7CFD9FF120066
:0A14E600D9CFE6FFDACFE6FFE1CF31
:1014F000D9FFE2CFDAFFE652E652FC0EDBCFDEFF89
:10150000DBCFDDFF010EDB50CF6EDF50CE6EE5523C
:0E151000E552E552E5CFDAFFE7CFD9FF120032
:02151E00D9CF23
:10152000E6FFDACFE6FFE1CFD9FFE2CFDAFFE652FE
:10153000E652FC0EDBCFDEFFDBCFDDFF010EDB5022
:10154000D76EDF50D66EE552E552E552E5CFDAFFB1
:06155000E7CFD9FF1200F5
:0A155600D9CFE6FFDACFE6FFE1CFC0
:10156000D9FFE2CFDAFFFD0EDB507F0BD56ED76AD5
:10157000D66AF294FD0EDBAE02D0F28A01D0F29A66
:0E158000D58EE552E5CFDAFFE7CFD9FF120096
:02158E00000E4D
:10159000F36E00EE00F0060E01D81200EA6002D0F1
:0E15A000EE6AFCD7F350E9601200EE6AFCD749
:0215AE0010EE3D
:1015B00080F020EE80F0F86A0F9C7BEC09F003ECE1
:0A15C00000F023EC09F0FBD7120045
:0615CA000201966B120005
:1015D0000201960503E1966B849003D0010E966F8D
:0415E00084801200F1
:0C15E400FF0EE350E84E1200000000D0A3
:0A15F00000D000D0E82EFAD7120058
:0615FA00000000000000EB
:1016000000000000000000000000000000000000DA
:1016100000000000000000000000000000000000CA
:1016200000000000000000000000000000000000BA
:1016300000000000000000000000000000000000AA
:10164000000000000000000000000000000000009A
:10165000000000000000000000000000000000008A
:10166000000000000000000000000000000000007A
:08167000000000000000000072
:0816780000000000000000006A
:0A1680000000000000000000000060
:06168A000000000000005A
:10169000000000000000000000000000000000004A
:1016A000000000000000000000000000000000003A
:1016B000000000000000000000000000000000002A
:1016C000000000000000000000000000000000001A
:1016D000000000000000000000000000000000000A
:1016E00000000000000000000000000000000000FA
:1016F00000000000000000000000000000000000EA
:1017000000000000000000000000000000000000D9
:06171000000000000000D3
:0A17160000000000000000000000C9
:1017200000000000000000000000000000000000B9
:1017300000000000000000000000000000000000A9
:101740000000000000000000000000000000000099
:0A175000000000000000000000008F
:06175A0000000000000089
:0E1760000000000000000000C80000000000B3
:02176E004944EC
:07177000454F4E49435300B1
:011777000071
:081778003F065B4F666D7D0723
:031780007F6F0078
:02178300FFFF66
:020000040030CA
:0100010008F6
:010002001BE2
:0100030012EA
:010005008179
:010006008178
:010008000FE8
:01000900C036
:01000A000FE6
:01000B00E014
:01000C000FE4
:01000D0040B2
:00000001FF
